:100000000C9466000C948E000C948E000C948E0060
:100010000C948E000C948E000C948E000C9413059E
:100020000C948E000C948E000C948E000C948E0018
:100030000C948E000C948E000C948E000C948E0008
:100040000C94960B0C948E000C94A3080C94D50879
:100050000C948E000C948E000C948E000C948E00E8
:100060000C948E000C948E00000000080002010029
:100070000003040700000000000000000102040863
:100080001020408001020408102001020408102002
:10009000040404040404040402020202020203032E
:1000A00003030303000000002300260029000000D2
:1000B0000000250028002B0000000000240027007D
:1000C0002A003F02E50405096302F50411241FBE5E
:1000D000CFEFD8E0DEBFCDBF12E0A0E0B1E0E2EFAD
:1000E000F2E202C005900D92A632B107D9F723E0E3
:1000F000A6E2B2E001C01D92AF3EB207E1F710E008
:10010000C8ECD0E004C02297FE010E94C40EC23C9D
:10011000D107C9F70E94850B0C946C110C94000058
:10012000CF93DF93C8E4D2E02897E881F98101906A
:10013000F081E02DCE01099582E0C832D807A1F701
:10014000DF91CF910895CF93DF93EC010E94700B64
:100150006EE271E0CE010E94510B811124C065E373
:1001600071E0CE010E94510B81111DC06EE371E060
:10017000CE010E94510B811116C06DE771E0CE01D6
:100180000E94510B811112C067E471E0CE010E9400
:10019000510B81110BC060E571E0CE010E94510B43
:1001A000811104C006C080E090E03AC081E090E098
:1001B00037C064E871E0CE010E94510B811107C085
:1001C00069E571E0CE010E94510B882319F082E0AD
:1001D00090E026C062E671E0CE010E94510B8111D1
:1001E000F6CF6BE871E0CE010E94510B811116C071
:1001F0006BE671E0CE010E94510B81110FC064E7E4
:1002000071E0CE010E94510B811108C0BE0185E44E
:1002100093E00E94A1098AE992E002C083E090E0A5
:10022000DF91CF91089526E040E855E260E070E06C
:1002300085E493E00E94410886E592E00C94FC047A
:100240000F931F93CF93DF93CDB7DEB72C970FB6E5
:10025000F894DEBF0FBECDBF68E472E086E592E0A1
:100260000E94D506892B09F4FFC040914C025091A1
:100270004D0260914E0270914F0220E1CE0107962F
:100280000E94240BBE01695F7F4FCE0101960E9440
:10029000030BCE0101960E94A3008C01CE010196B2
:1002A0000E947E0A60910C0170910D014AE050E0BD
:1002B00085E493E00E945E0A62E971E085E493E0E0
:1002C0000E9494094AE050E0B80185E493E00E945E
:1002D000660A0A3982E0180759F484E690E09093A0
:1002E0000D0180930C0186E292E00E94D504B4C017
:1002F00080910C0190910D018436910581F40130BB
:10030000110509F49BC024F4012B09F488C0A4C092
:100310000230110501F10330110551F09DC0980123
:10032000225031092230310528F50230110599F0AB
:100330006DEA71E085E493E00E94B30960910801E1
:100340007091090186E292E00E943F0310930D0133
:1003500000930C0181C063EA71E085E493E00E94A0
:10036000B30960910A0170910B0186E292E00E944C
:100370002703ECCF0230110508F06EC09C0122501B
:1003800031092230310508F042C0029701F5012BF6
:1003900079F467EB71E085E493E00E94B309609122
:1003A0000A0170910B0186E292E00E94970354C00B
:1003B00066EC71E085E493E00E94B30960910A0164
:1003C00070910B0186E292E00E94570345C0012B19
:1003D00079F466ED71E085E493E00E94B3096091E1
:1003E00008017091090186E292E00E94150434C070
:1003F00065EE71E085E493E00E94B3096091080125
:100400007091090186E292E00E94D50325C084E63E
:1004100090E090930D0180930C01012B79F464E935
:1004200071E085E493E00E94B30960910601709148
:10043000070186E292E00E9494040EC06BE971E02D
:1004400085E493E00E94B309609106017091070171
:1004500086E292E00E94530486E592E00E94B20593
:10046000CE0107960E947E0A2C960FB6F894DEBF46
:100470000FBECDBFDF91CF911F910F91089563E122
:1004800070E086E592E00E94F7046AE171E088E29C
:1004900092E00E9419076EE071E080E392E00E9412
:1004A000190764E171E088E392E00E94190760E2B5
:1004B00071E080E492E00E94190768E272E086E24F
:1004C00092E00C94860286E292E00E9469020C940B
:1004D000900029EF31E0FC0131832083089529EF5A
:1004E00031E0FC01318320830C94940B87E592E08A
:1004F0000E9406078FE592E00E94060787E692E0D9
:100500000E9406078FE692E00C940607EF92FF9296
:100510000F931F93CF93DF93CDB7DEB728970FB616
:10052000F894DEBF0FBECDBF8B0129EF31E0FC0197
:100530003183208381E0E82E82E0F82EFA82E9827E
:10054000FB01428153815C834B83248135813E834F
:100550002D838681978198878F8350937202409371
:100560007102309374022093730290937602809309
:100570007502CE0101960E940607FA82E982F8010F
:10058000428553855C834B83248535853E832D834B
:100590008685978598878F8350936A024093690276
:1005A00030936C0220936B0290936E0280936D02E5
:1005B000CE0101960E940607FA82E982F80142897B
:1005C00053895C834B83248935893E832D838689B7
:1005D000978998878F83509362024093610230938A
:1005E0006402209363029093660280936502CE01B9
:1005F00001960E940607FA82E982F801428D538D26
:100600005C834B83248D358D3E832D83868D978D22
:1006100098878F8350935A024093590230935C021B
:1006200020935B0290935E0280935D02CE0101965F
:100630000E94060728960FB6F894DEBF0FBECDBF06
:10064000DF91CF911F910F91FF90EF900895CF937D
:10065000DF93EB018FE692E00E943107BE0187E64F
:1006600092E00E943107BE018FE592E00E943107BF
:10067000BE0187E592E0DF91CF910C943107CF93D3
:10068000DF93EB018FE692E00E944107BE0187E60F
:1006900092E00E944107BE018FE592E00E9441076F
:1006A000BE0187E592E0DF91CF910C944107CF9294
:1006B000DF92EF92FF927B016FEF70E08FE692E0A6
:1006C0000E943107B701882777FD8095982F0E94F7
:1006D000720D6B017C0120912A0130912B01409118
:1006E0002C0150912D010E94220E0E943F0D87E6A1
:1006F00092E00E9431076FEF70E08FE592E00E9478
:10070000310720912A0130912B0140912C01509109
:100710002D01C701B6010E94220E0E943F0D87E500
:1007200092E0FF90EF90DF90CF900C943107CF9242
:10073000DF92EF92FF92882777FD8095982F0E9495
:10074000720D6B017C0120912A0130912B014091A7
:100750002C0150912D010E94220E0E943F0D8FE628
:1007600092E00E9431076FEF70E087E692E00E940E
:10077000310720912A0130912B0140912C01509199
:100780002D01C701B6010E94220E0E943F0D8FE588
:1007900092E00E9431076FEF70E087E592E0FF90F2
:1007A000EF90DF90CF900C943107CF92DF92EF92D1
:1007B000FF927B016FEF70E08FE692E00E944107AD
:1007C000B701882777FD8095982F0E94720D6B01E5
:1007D0007C0120912A0130912B0140912C015091F4
:1007E0002D010E94220E0E943F0D87E692E00E949A
:1007F00041076FEF70E08FE592E00E944107209182
:100800002A0130912B0140912C0150912D01C701FB
:10081000B6010E94220E0E943F0D87E592E0FF90F4
:10082000EF90DF90CF900C944107CF92DF92EF9240
:10083000FF92882777FD8095982F0E94720D6B019B
:100840007C0120912A0130912B0140912C01509183
:100850002D010E94220E0E943F0D8FE692E00E9421
:1008600041076FEF70E087E692E00E944107209118
:100870002A0130912B0140912C0150912D01C7018B
:10088000B6010E94220E0E943F0D8FE592E00E9469
:1008900041076FEF70E087E592E0FF90EF90DF9007
:1008A000CF900C944107CF92DF92EF92FF92CF93BB
:1008B000DF93EB018FE692E00E943107BE018827AB
:1008C00077FD8095982F0E94720D6B017C0120911D
:1008D00026013091270140912801509129010E9461
:1008E000220E0E943F0D87E692E00E944107BE0162
:1008F0008FE592E00E943107209126013091270177
:100900004091280150912901C701B6010E94220E91
:100910000E943F0D87E592E0DF91CF91FF90EF902D
:10092000DF90CF900C944107CF92DF92EF92FF922D
:10093000CF93DF93EB01882777FD8095982F0E9456
:10094000720D6B017C0120912601309127014091AD
:100950002801509129010E94220E0E943F0D8FE62E
:1009600092E00E944107BE0187E692E00E943107B3
:1009700020912601309127014091280150912901B1
:10098000C701B6010E94220E0E943F0D8FE592E042
:100990000E944107BE0187E592E0DF91CF91FF9071
:1009A000EF90DF90CF900C9431078FE692E00E9499
:1009B000510787E692E00E9451078FE592E00E947E
:1009C000510787E592E00C9451078FE692E00E9470
:1009D000130787E692E00E9413078FE592E00E94DA
:1009E000130787E592E00C9413070C94760260934A
:1009F0007702109279020895F89482E08093B00013
:100A00008093B10094E69093B3001092B20080936B
:100A1000700078948093780210924403809177025A
:100A200060E00C94A30C1F920F920FB60F9211244A
:100A30002F933F934F935F936F937F938F939F93E6
:100A4000AF93BF93EF93FF93809177020E94120DB3
:100A500020917A0230917B022F5F3F4F30937B02CF
:100A600020937A0290914403943618F095E0909385
:100A70007802909178029330B9F018F4923039F0FE
:100A800057C0943059F1953009F44CC051C08111D0
:100A90004FC020917A0230917B022436310508F450
:100AA00043C0109244031CC0813009F041C0E09162
:100AB000440391E09E0F90934403F0E020917A026A
:100AC00030917B02EE0FFF1FE958FD4F36832583DF
:100AD00010927B0210927A0294E021C0811117C01B
:100AE000E091440391E09E0F90934403F0E0209145
:100AF0007A0230917B02EE0FFF1FE958FD4F3683DB
:100B0000258310927B0210927A0293E008C0209114
:100B10007A0230917B022536310550F095E09093B2
:100B2000780206C0811104C010927B0210927A02F2
:100B300090917902992329F0811102C02D9A01C068
:100B40002D98FF91EF91BF91AF919F918F917F91E0
:100B50006F915F914F913F912F910F900FBE0F902A
:100B60001F90189582E080937802109244030895B4
:100B7000CF93DF93FB01C285D3858A819B818858FF
:100B800091098D35910500F580914403843029F455
:100B90008C819D8180974797D8F08091440384345D
:100BA00098F08C819D81825491098E9768F42696E5
:100BB00023E030E080E090E0DC0148815981495039
:100BC000510949305105D8F060E070E0CB013AC0DE
:100BD0008E819F810997099700F7118610868FEF04
:100BE0009FEFDC0184839583A683B78381E090E047
:100BF0009183808361E070E080E090E023C04A81CF
:100C00005B81465151094131510580F4880F991F8C
:100C1000AA1FBB1F81602E5F3F4F249623343105EE
:100C200061F620E230E031872087DCCF4A815B81AA
:100C3000465051094730510538F6880F991FAA1FB1
:100C4000BB1FE9CFDF91CF9108958F929F92AF9212
:100C5000BF92CF92DF92EF92FF927B01BA0180E0C8
:100C600090E00E94700D4B015C01B70180E090E0C4
:100C70000E94700D6B017C012DEC3CEC4CE45FE3B9
:100C80000E94220E9B01AC01C501B4010E943B0DE4
:100C900087FD17C02DEC3CEC4CE45FE3C501B401CB
:100CA0000E94220E9B01AC01C701B6010E943B0DC0
:100CB000992787FD90958827990F881F9927019676
:100CC00002C080E090E0FF90EF90DF90CF90BF9067
:100CD000AF909F908F9008958F929F92AF92BF9206
:100CE000CF92DF92EF92FF920F931F93CF93DF93F8
:100CF0006C01EB01EC84FD8486E0E816F1040CF451
:100D000044C0EE0CFF1C06E010E0A5EC8A2EADE915
:100D10009A2EACE1AA2EA1E8BA2E8A859B85FC0109
:100D2000E00FF11F40815181F8013497E80FF91F5E
:100D300060817181C6010E942506FC01A501940114
:100D400063E971E080E091E00E94850E4F01AA24E2
:100D500097FCA094BA2C86269726A826B9260E5F63
:100D60001F4F0E151F05C9F68C829D82AE82BF8271
:100D700080E290E0998788878FEF9FEF998388833F
:100D800061E070E080E090E003C060E070E0CB01E3
:100D9000DF91CF911F910F91FF90EF90DF90CF9057
:100DA000BF90AF909F908F9008950F931F93CF9314
:100DB000DF938C01EB018CE792E09B878A8780911F
:100DC000440390E09D878C87809178028530B9F448
:100DD000C8010E94B805672B682B692B19F081E0C8
:100DE00090E00FC0BE01C8010E946C06672B682B03
:100DF000692BA9F782E0809378021092440380E087
:100E000090E0DF91CF911F910F91089521E032E0A2
:100E1000FC0131832083089521E032E0FC0131831D
:100E200020830C94940B21E032E0FC013183208379
:100E30000895FC01DB0181E092E0918380838D9134
:100E40009C9111979583848312968D919C91139711
:100E50009783868314968D919C91159793838283B3
:100E60000895CF93DF93EC018A810E941B0C60E010
:100E70008C810E94DC0C61E08E81DF91CF910C941B
:100E8000DC0CCF93DF93EC018A810E941B0C61E0A4
:100E90008C810E94DC0C60E08E81DF91CF910C94FC
:100EA000DC0CCF93DF93EC0160E08C810E94DC0CC2
:100EB00060E08E81DF91CF910C94DC0CFC01818D80
:100EC000228D90E0805C9F4F821B91098F73992740
:100ED0000895FC01918D828D981731F0828DE80F75
:100EE000F11D858D90E008958FEF9FEF0895FC012F
:100EF000918D828D981761F0828DDF01A80FB11D51
:100F00005D968C91928D9F5F9F73928F90E0089574
:100F10008FEF9FEF08958BEF98E0892B49F080E0E9
:100F200090E0892B29F00E94FB0881110C940000AD
:100F30000895FC01848DDF01A80FB11DA35ABF4F96
:100F40002C91848D90E001968F739927848FA689C8
:100F5000B7892C93A089B1898C9180648C93938DEF
:100F6000848D981306C00288F389E02D80818F7DDF
:100F700080830895CF93DF93EC01888D8823C9F097
:100F8000EA89FB89808185FD05C0A889B9898C9192
:100F900086FD0FC00FB607FCF5CF808185FFF2CF2D
:100FA000A889B9898C9185FFEDCFCE010E94990760
:100FB000E7CFDF91CF910895CF92DF92FF920F9309
:100FC0001F93CF93DF931F92CDB7DEB76C0181E003
:100FD000D60158968C9358975B969C915B975C963C
:100FE0008C915C97981307C05096ED91FC915197A6
:100FF000808185FD2EC0F601038D10E00F5F1F4F2D
:101000000F731127F02EF601848DF81211C00FB660
:1010100007FCF9CFD6015096ED91FC915197808154
:1010200085FFF1CFC60169830E9499076981EBCFE3
:10103000838DE80FF11DE35AFF4F6083D6015B9665
:101040000C935B975296ED91FC915397808180624F
:101050000CC0D6015696ED91FC915797608350963F
:10106000ED91FC91519780818064808381E090E0D4
:101070000F90DF91CF911F910F91FF90DF90CF9054
:101080000895BF92CF92DF92EF92FF92CF93DF93BA
:10109000EC016A017B01B22EE889F98982E0808344
:1010A000411581EE580761057105A1F060E079E016
:1010B0008DE390E0A70196010E94950E2150310921
:1010C000410951095695479537952795211580E196
:1010D000380798F0E889F989108260E874E88EE1B1
:1010E00090E0A70196010E94950E21503109410917
:1010F00051095695479537952795EC85FD853083A1
:10110000EE85FF852083188EEC89FD89B082EA89FF
:10111000FB89808180618083EA89FB898081886086
:101120008083EA89FB89808180688083EA89FB89E2
:1011300080818F7D8083DF91CF91FF90EF90DF9052
:10114000CF90BF9008951F920F920FB60F92112467
:101150002F938F939F93EF93FF93E0915503F0911B
:1011600056038081E0915B03F0915C0382FD12C025
:10117000908180915E038F5F8F7320915F03821750
:1011800051F0E0915E03F0E0EB5BFC4F958F8093B4
:101190005E0301C08081FF91EF919F918F912F910C
:1011A0000F900FBE0F901F9018951F920F920FB6C1
:1011B0000F9211242F933F934F935F936F937F93DD
:1011C0008F939F93AF93BF93EF93FF9385E493E047
:1011D0000E949907FF91EF91BF91AF919F918F91DD
:1011E0007F916F915F914F913F912F910F900FBE23
:1011F0000F901F90189585E493E00E945E0721E010
:10120000892B09F420E0822F089510924803109250
:10121000470388EE93E0A0E0B0E080934903909309
:101220004A03A0934B03B0934C0389E092E0909360
:1012300046038093450385EC90E09093520380939E
:10124000510384EC90E0909354038093530380EC1B
:1012500090E0909356038093550381EC90E0909337
:1012600058038093570382EC90E090935A03809345
:10127000590386EC90E090935C0380935B0310929B
:101280005E0310925F031092600310926103089551
:10129000CF92DF92EF92FF920F931F93CF93DF9342
:1012A0007C016A01EB0100E010E00C151D0571F0F6
:1012B0006991D701ED91FC910190F081E02DC7017A
:1012C0000995892B19F00F5F1F4FEFCFC801DF91F0
:1012D000CF911F910F91FF90EF90DF90CF900895E5
:1012E0006115710581F0DB010D900020E9F7AD017A
:1012F00041505109461B570BDC01ED91FC910280D6
:10130000F381E02D099480E090E00895DC01ED91F7
:10131000FC91DB0114964D915C9115976D917C9138
:101320000280F381E02D09940C947009DC01ED91A9
:10133000FC910190F081E02D099465E172E00C943C
:1013400070090F931F93CF93DF93EC010E948609DE
:101350008C01CE010E949D09800F911FDF91CF91DA
:101360001F910F9108950F931F93CF93DF93EC017B
:101370000E9470098C01CE010E949D09800F911F6F
:10138000DF91CF911F910F9108958F929F92AF920D
:10139000BF92DF92EF92FF920F931F93CF93DF9351
:1013A000CDB7DEB7A1970FB6F894DEBF0FBECDBFA5
:1013B0007C01F42FD52ECB0119A2223008F42AE0AB
:1013C0008E010F5D1F4F822E912CA12CB12C6F2FFF
:1013D0007D2DA50194010E94950EF22FD32ECA01F6
:1013E000015011096A3014F4E0E301C0E7E3E60FAD
:1013F000D801EC93232B242B252B49F7B801C701E7
:101400000E947009A1960FB6F894DEBF0FBECDBF43
:10141000DF91CF911F910F91FF90EF90DF90BF90E0
:10142000AF909F908F900895CF92DF92EF92FF92AE
:101430000F931F93CF93DF93EC016A017B0121157A
:10144000310579F4E881F9810190F081E02D642F74
:10145000DF91CF911F910F91FF90EF90DF90CF9090
:1014600009942A303105E9F477FF1AC06DE20E9431
:1014700096098C0144275527BA014C195D096E095C
:101480007F092AE0CE010E94C509800F911FDF91DC
:10149000CF911F910F91FF90EF90DF90CF90089523
:1014A0002AE0B701A601CE01DF91CF911F910F91E4
:1014B000FF90EF90DF90CF900C94C5099A01AB019B
:1014C000662757FD6095762F0C94140A0F931F938F
:1014D000CF93DF93EC019A01AB01662757FD60952E
:1014E000762F0E94140A8C01CE010E949D09800F64
:1014F000911FDF91CF911F910F910895FC01808181
:1015000091810C946F0FCF93DF93EC0188819981C7
:10151000009711F00E946F0F198218821D821C82A1
:101520001B821A82DF91CF9108950F931F93CF935F
:10153000DF93EC018B016F5F7F4F888199810E945F
:10154000FE0F009731F0998388831B830A8381E023
:1015500001C080E0DF91CF911F910F910895CF934B
:10156000DF93EC0188819981892B29F08A819B8105
:101570008617970760F4CE010E94950A882341F0F0
:101580008C819D81892B19F4E881F981108281E099
:10159000DF91CF910895EF92FF920F931F93CF9316
:1015A000DF93EC017B018A01BA010E94AF0A81112D
:1015B00004C0CE010E94830A07C01D830C83B701BB
:1015C000888199810E94E210CE01DF91CF911F9115
:1015D0000F91FF90EF900895CF93DF93EC01FB0103
:1015E0008617970761F0608171816115710529F097
:1015F000448155810E94CB0A02C00E94830ACE0119
:10160000DF91CF910895FC01118210821382128222
:10161000158214820C94EC0ACF93DF93EC016115D0
:10162000710561F0FB0101900020E9F7AF01415025
:101630005109461B570B0E94CB0A02C00E94830A25
:10164000CE01DF91CF9108950F931F93CF93DF9336
:10165000CDB7DEB7A2970FB6F894DEBF0FBECDBFF1
:101660008C01CB01BA01F80111821082138212821F
:101670001582148230E0AE014F5F5F4F0E94E91087
:10168000BE016F5F7F4FC8010E940C0BA2960FB680
:10169000F894DEBF0FBECDBFDF91CF911F910F91A8
:1016A0000895FC0124813581232B31F421E061155B
:1016B0007105A1F0FB0108C0FC01808191816115D9
:1016C000710531F421E0FC018081882339F005C0E7
:1016D0000E94D91021E0892B09F020E0822F089583
:1016E000CF93DF93FC01C081D181209751F0888195
:1016F000882339F0992787FD90950E94C810899317
:10170000F6CFDF91CF91089508950E94E00B0E94DB
:10171000840B0E941301CBE8D7E00E9420012097A0
:10172000E1F30E948B07F9CF0C946F0F1F920F9279
:101730000FB60F9211242F933F938F939F93AF93E4
:10174000BF938091E3039091E403A091E503B091EE
:10175000E6033091E20323E0230F2D3720F40196B6
:10176000A11DB11D05C026E8230F0296A11DB11DC4
:101770002093E2038093E3039093E403A093E503B3
:10178000B093E6038091E7039091E803A091E90309
:10179000B091EA030196A11DB11D8093E7039093D8
:1017A000E803A093E903B093EA03BF91AF919F913F
:1017B0008F913F912F910F900FBE0F901F90189512
:1017C000789484B5826084BD84B5816084BD85B51C
:1017D000826085BD85B5816085BDEEE6F0E08081E3
:1017E00081608083E1E8F0E0108280818260808304
:1017F000808181608083E0E8F0E080818160808387
:10180000E1EBF0E0808184608083E0EBF0E08081B8
:1018100081608083EAE7F0E080818460808380815A
:101820008260808380818160808380818068808302
:101830001092C10008951F93CF93DF93182FEB01EF
:1018400061E00E94A30C209711F460E004C0CF3F38
:10185000D10539F461E0812FDF91CF911F910C9474
:10186000DC0CE12FF0E0E859FF4FE491E330F9F0B0
:1018700048F4E130B9F0E230A1F584B5806284BD6E
:10188000C8BD34C0E730E9F0E83019F1E43049F57B
:1018900080918000806280938000D0938B00C09301
:1018A0008A0024C084B5806884BDC7BD1FC08091F4
:1018B0008000806880938000D0938900C093880066
:1018C00015C08091B00080688093B000C093B300D1
:1018D0000DC08091B00080628093B000C093B400CE
:1018E00005C0C038D1050CF0B5CFAFCFDF91CF9197
:1018F0001F910895833081F028F4813099F082306F
:10190000A1F008958730A9F08830B9F08430D1F47F
:10191000809180008F7D03C0809180008F778093BD
:101920008000089584B58F7702C084B58F7D84BD13
:1019300008958091B0008F7703C08091B0008F7DB3
:101940008093B0000895CF93DF9390E0FC01E458BA
:10195000FF4F2491FC01E057FF4F8491882349F108
:1019600090E0880F991FFC01E854FF4FA591B491B6
:1019700082559F4FFC01C591D4919FB7611108C05A
:10198000F8948C91209582238C93888182230AC0BD
:10199000623051F4F8948C91322F309583238C93DC
:1019A0008881822B888304C0F8948C91822B8C933D
:1019B0009FBFDF91CF9108950F931F93CF93DF9334
:1019C0001F92CDB7DEB7282F30E0F901E859FF4F5D
:1019D0008491F901E458FF4F1491F901E057FF4F4A
:1019E00004910023C9F0882321F069830E947A0CB6
:1019F0006981E02FF0E0EE0FFF1FE255FF4FA59148
:101A0000B4919FB7F8948C91611103C01095812314
:101A100001C0812B8C939FBF0F90DF91CF911F91BD
:101A20000F910895CF93DF93282F30E0F901E85903
:101A3000FF4F8491F901E458FF4FD491F901E05729
:101A4000FF4FC491CC2391F081110E947A0CEC2FAE
:101A5000F0E0EE0FFF1FEC55FF4FA591B4912C91D4
:101A60002D2381E090E021F480E002C080E090E04E
:101A7000DF91CF91089571D008F481E0089504D0EA
:101A80006894B111D9C00895BCD088F09F5790F0E8
:101A9000B92F9927B751A0F0D1F0660F771F881F93
:101AA000991F1AF0BA95C9F712C0B13081F0C3D0AE
:101AB000B1E00895C0C0672F782F8827B85F39F04C
:101AC000B93FCCF3869577956795B395D9F73EF4F2
:101AD00090958095709561957F4F8F4F9F4F08959A
:101AE000E89409C097FB3EF49095809570956195B8
:101AF0007F4F8F4F9F4F9923A9F0F92F96E9BB276E
:101B00009395F695879577956795B795F111F8CFE9
:101B1000FAF4BB0F11F460FF1BC06F5F7F4F8F4F54
:101B20009F4F16C0882311F096E911C0772321F04A
:101B30009EE8872F762F05C0662371F096E8862FE2
:101B400070E060E02AF09A95660F771F881FDAF739
:101B5000880F9695879597F90895990F0008550F66
:101B6000AA0BE0E8FEEF16161706E807F907C0F023
:101B700012161306E407F50798F0621B730B840B2B
:101B8000950B39F40A2661F0232B242B252B21F405
:101B900008950A2609F4A140A6958FEF811D811DA5
:101BA000089597F99F6780E870E060E008959FEFDF
:101BB00080EC089500240A941616170618060906E4
:101BC000089500240A9412161306140605060895B3
:101BD000092E0394000C11F4882352F0BB0F40F43B
:101BE000BF2B11F460FF04C06F5F7F4F8F4F9F4F7B
:101BF000089557FD9058440F551F59F05F3F71F0FD
:101C00004795880F97FB991F61F09F3F79F0879563
:101C10000895121613061406551FF2CF4695F1DFEC
:101C200008C0161617061806991FF1CF869571057C
:101C3000610508940895E894BB2766277727CB01B0
:101C400097F908950BD0C4CFB5DF28F0BADF18F0AC
:101C5000952309F0A6CFABCF1124EECFCADFA0F3B6
:101C6000959FD1F3950F50E0551F629FF001729F31
:101C7000BB27F00DB11D639FAA27F00DB11DAA1F50
:101C8000649F6627B00DA11D661F829F2227B00D9D
:101C9000A11D621F739FB00DA11D621F839FA00D28
:101CA000611D221F749F3327A00D611D231F849F78
:101CB000600D211D822F762F6A2F11249F575040CF
:101CC0008AF0E1F088234AF0EE0FFF1FBB1F661F6A
:101CD000771F881F91505040A9F79E3F510570F023
:101CE00060CFAACF5F3FECF3983EDCF38695779503
:101CF0006795B795F795E7959F5FC1F7FE2B880F1E
:101D0000911D9695879597F90895DB018F939F9381
:101D10000E94B70EBF91AF91A29F800D911DA39F0E
:101D2000900DB29F900D11240895A1E21A2EAA1BC6
:101D3000BB1BFD010DC0AA1FBB1FEE1FFF1FA2177B
:101D4000B307E407F50720F0A21BB30BE40BF50B78
:101D5000661F771F881F991F1A9469F76095709501
:101D6000809590959B01AC01BD01CF0108950E9423
:101D7000C80EA59F900DB49F900DA49F800D911D3E
:101D800011240895EE0FFF1F0590F491E02D0994A2
:101D9000A29FB001B39FC001A39F700D811D1124AC
:101DA000911DB29F700D811D1124911D0895CF9337
:101DB000DF938230910510F482E090E0E091ED0332
:101DC000F091EE0320E030E0A0E0B0E0309739F190
:101DD0004081518148175907B8F04817590771F4E5
:101DE00082819381109729F013969C938E9312977A
:101DF0002CC09093EE038093ED0327C0211531058D
:101E000031F04217530718F0A901DB0101C0EF01BF
:101E10009A01BD01DF010280F381E02DD7CF2115AA
:101E20003105F9F0281B390B2430310580F48A8103
:101E30009B816115710521F0FB019383828304C0AE
:101E40009093EE038093ED03FE01329644C0FE01B1
:101E5000E20FF31F81939193225031093983288334
:101E60003AC02091EB033091EC03232B41F42091F5
:101E70000201309103013093EC032093EB03209196
:101E80000001309101012115310541F42DB73EB714
:101E90004091040150910501241B350BE091EB03A7
:101EA000F091EC03E217F307A0F42E1B3F0B281769
:101EB000390778F0AC014E5F5F4F2417350748F0C3
:101EC0004E0F5F1F5093EC034093EB03819391936C
:101ED00002C0E0E0F0E0CF01DF91CF910895CF9311
:101EE000DF93009709F487C0FC01329713821282B6
:101EF000C091ED03D091EE03209781F420813181D0
:101F0000280F391F8091EB039091EC038217930700
:101F100079F5F093EC03E093EB036DC0DE0120E074
:101F200030E0AE17BF0750F412964D915C911397B5
:101F30009D014115510509F1DA01F3CFB383A28365
:101F400040815181840F951F8A179B0771F48D91F1
:101F50009C911197840F951F02969183808312960E
:101F60008D919C911397938382832115310529F4D8
:101F7000F093EE03E093ED033EC0D9011396FC937A
:101F8000EE9312974D915D91A40FB51FEA17FB07D1
:101F900079F480819181840F951F0296D901119661
:101FA0009C938E938281938113969C938E93129728
:101FB000E0E0F0E08A819B81009719F0FE01EC01DE
:101FC000F9CFCE01029628813981820F931F20918B
:101FD000EB033091EC032817390769F4309729F4A3
:101FE0001092EE031092ED0302C013821282D0937E
:101FF000EC03C093EB03DF91CF910895A0E0B0E034
:10200000E4E0F0E10C943911EC01CB01209719F4D4
:102010000E94D70EB8C0FE01E60FF71F9E012250A6
:102020003109E217F30708F4ACC0D9010D911C91F6
:10203000119706171707B8F00530110508F49FC06F
:10204000A801445051094617570708F498C0025098
:102050001109061B170B019311936D937C93CF010C
:102060000E946F0F8CC05B01A01AB10A4E01800E56
:10207000911EA091ED03B091EE03612C712C60E0F4
:1020800070E0109709F449C0A815B905C9F5ED909D
:10209000FC901197670142E0C40ED11CCA14DB0406
:1020A00078F147018A189B08640142E0C40ED11CF4
:1020B0001296BC9012971396AC91B5E0CB16D10452
:1020C00040F0B282A38391828082D9018D939C9348
:1020D00009C00E5F1F4F0E0D1F1DF90111830083F4
:1020E000EB2DFA2F6115710531F0DB011396FC938E
:1020F000EE93129744C0F093EE03E093ED033FC0DC
:102100006D917C9111976616770608F43B01BD012D
:1021100012960D90BC91A02DB4CF6091EB037091FD
:10212000EC0368157905E9F468167906D0F4409156
:102130000001509101014115510541F44DB75EB7C1
:102140006091040170910501461B570BE417F507D8
:10215000C0F4F093EC03E093EB03F90191838083E7
:102160000EC00E94D70E7C01009759F0A801BE0155
:102170000E94D010CE010E946F0FC70104C0CE0193
:1021800002C080E090E0CDB7DEB7EEE00C945511D0
:102190009111089581568A5108F480528558089506
:1021A000FB01DC0102C001900D9241505040D8F774
:1021B0000895FB01DC018D91019080190110D9F384
:1021C000990B0895FB01DC0101900D920020E1F7CD
:1021D00008952532310520F4223010F00C94F410CB
:1021E000FA011082CA010895BB272A3051F49923BD
:1021F00042F4BDE290958095709561957F4F8F4F29
:102200009F4F0C940411BB27FA01A62F621771058A
:1022100081059105330B30FB66F0AA27660F771F07
:10222000881F991FAA1FA21710F0A21B6395385090
:10223000A9F7A05DAA3308F0A95DA19336F7B11103
:10224000B1931082CA010C942511DC01FC01672FA7
:1022500071917723E1F7329704C07C916D9370837D
:102260006291AE17BF07C8F308952F923F924F9225
:102270005F926F927F928F929F92AF92BF92CF9216
:10228000DF92EF92FF920F931F93CF93DF93CDB71F
:10229000DEB7CA1BDB0B0FB6F894DEBF0FBECDBF97
:1022A00009942A88398848885F846E847D848C8468
:1022B0009B84AA84B984C884DF80EE80FD800C8171
:1022C0001B81AA81B981CE0FD11D0FB6F894DEBF54
:1022D0000FBECDBFED01089510E0C8ECD0E004C002
:1022E000FE010E94C40E2296CC3CD107C9F7F89497
:0222F000FFCF1E
:1022F2000000EF038000B4009600BE0064000B00F3
:10230200070006000800030009000D000C0005008C
:10231200020004000A003333333FCDCC4C3E464426
:10232200323844370043424432434346440037354F
:102332003843394438320038354530394436310073
:102342003533383031454538003646353937344231
:102352004400433236424630343400353745333454
:10236200364531004334464642363436004644361A
:10237200383937004644383837370046443938361A
:1023820037007C007C204C656674007C20526967B3
:102392006874007C20466F7277617264007C205200
:1023A200657665727365007C20666F727761726410
:1023B200204C656674007C20666F727761726420BF
:1023C2005269676874007C20726576657273652055
:1023D2004C656674007C2072657665727365205266
:1023E20069676874000000000069026F0200000063
:1023F2000006070C0700000000DC0748095E0777AB
:10240200076907BA070D0A006E616E00696E660001
:062412006F7666002E004B
:00000001FF
