:100000000C9434000C9451000C9451000C94510049
:100010000C9451000C9451000C9451000C9451001C
:100020000C9451000C9451000C9451000C9451000C
:100030000C9451000C9451000C9451000C945100FC
:100040000C94C7000C9451000C9451000C94510076
:100050000C9451000C9451000C9451000C945100DC
:100060000C9451000C94510011241FBECFEFD8E026
:10007000DEBFCDBF11E0A0E0B1E0EAEEF4E002C0E7
:1000800005900D92A632B107D9F721E0A6E2B1E0C2
:1000900001C01D92A933B207E1F70E94B6000C948B
:1000A00073020C9400000895CF93DF93CDB7DEB7B1
:1000B00028970FB6F894DEBF0FBECDBF68E171E0A0
:1000C000CE0107960E949C0062E171E0CE01059688
:1000D0000E949C006CE071E0CE0103960E949C009F
:1000E00066E071E0CE0101960E949C00CE0101966F
:1000F0000E948F00CE0103960E948F00CE010596CC
:100100000E948F00CE0107960E948F0028960FB69E
:10011000F894DEBF0FBECDBFDF91CF91089522E2EC
:1001200031E0FC0131832083089522E231E0FC01BB
:10013000318320830C94C500FB0122E231E0DC0115
:100140002D933C9380819181909329018093280184
:1001500082819381909327018093260184819581E8
:1001600090932B0180932A01089508950E94110114
:100170000E94B5000E945400C0E0D0E00E945300ED
:100180002097E1F30E940000F9CF0C94E4011F9244
:100190000F920FB60F9211242F933F938F939F933B
:1001A000AF93BF9380912D0190912E01A0912F01CB
:1001B000B091300130912C0123E0230F2D3720F432
:1001C0000196A11DB11D05C026E8230F0296A11DB1
:1001D000B11D20932C0180932D0190932E01A093AB
:1001E0002F01B09330018091310190913201A091A3
:1001F0003301B09134010196A11DB11D80933101ED
:1002000090933201A0933301B0933401BF91AF9129
:100210009F918F913F912F910F900FBE0F901F9044
:100220001895789484B5826084BD84B5816084BD5E
:1002300085B5826085BD85B5816085BDEEE6F0E05F
:10024000808181608083E1E8F0E0108280818260BB
:100250008083808181608083E0E8F0E0808181603C
:100260008083E1EBF0E0808184608083E0EBF0E06C
:10027000808181608083EAE7F0E080818460808310
:1002800080818260808380818160808380818068BA
:1002900080831092C1000895CF93DF93823091053F
:1002A00010F482E090E0E0913701F091380120E015
:1002B00030E0A0E0B0E0309739F14081518148173B
:1002C0005907B8F04817590771F482819381109744
:1002D00029F013969C938E9312972CC0909338011B
:1002E0008093370127C02115310531F0421753079C
:1002F00018F0A901DB0101C0EF019A01BD01DF0186
:100300000280F381E02DD7CF21153105F9F0281BAC
:10031000390B2430310580F48A819B816115710588
:1003200021F0FB019383828304C090933801809372
:100330003701FE01329644C0FE01E20FF31F8193A4
:10034000919322503109398328833AC02091350195
:1003500030913601232B41F42091020130910301A9
:100360003093360120933501209100013091010135
:100370002115310541F42DB73EB74091040150914C
:100380000501241B350BE0913501F0913601E21790
:10039000F307A0F42E1B3F0B2817390778F0AC01A8
:1003A0004E5F5F4F2417350748F04E0F5F1F509385
:1003B0003601409335018193919302C0E0E0F0E073
:1003C000CF01DF91CF910895CF93DF93009709F488
:1003D00087C0FC01329713821282C0913701D091FD
:1003E0003801209781F420813181280F391F8091B5
:1003F0003501909136018217930779F5F093360114
:10040000E09335016DC0DE0120E030E0AE17BF079C
:1004100050F412964D915C9113979D014115510531
:1004200009F1DA01F3CFB383A28340815181840FB4
:10043000951F8A179B0771F48D919C911197840FDA
:10044000951F02969183808312968D919C911397AC
:10045000938382832115310529F4F0933801E093C9
:1004600037013EC0D9011396FC93EE9312974D913C
:100470005D91A40FB51FEA17FB0779F48081918184
:10048000840F951F0296D90111969C938E938281B9
:10049000938113969C938E931297E0E0F0E08A810B
:1004A0009B81009719F0FE01EC01F9CFCE01029675
:1004B00028813981820F931F2091350130913601B7
:1004C0002817390769F4309729F4109238011092EF
:1004D000370102C013821282D0933601C0933501D6
:0A04E000DF91CF910895F894FFCF4B
:1004EA000000390180000D000C000B0008000A0012
:1004FA0009000500070006000200040003000000CE
:06050A0000008F009500C7
:00000001FF
