:100000000C9466000C948E000C948E000C948E0060
:100010000C948E000C948E000C948E000C94C702ED
:100020000C948E000C948E000C948E000C948E0018
:100030000C948E000C948E000C948E000C948E0008
:100040000C941B090C948E000C943A060C946C06CC
:100050000C948E000C948E000C948E000C948E00E8
:100060000C948E000C948E00000000080002010029
:100070000003040700000000000000000102040863
:100080001020408001020408102001020408102002
:10009000040404040404040402020202020203032E
:1000A00003030303000000002300260029000000D2
:1000B0000000250028002B0000000000240027007D
:1000C0002A00B10199029C06D501A90211241FBE84
:1000D000CFEFD8E0DEBFCDBF11E0A0E0B1E0E6E5B4
:1000E000FEE102C005900D92A03DB107D9F723E0D3
:1000F000A0EDB1E001C01D92A939B207E1F710E00F
:10010000C8ECD0E004C02297FE010E94760CC23CED
:10011000D107C9F70E940A090C941E0F0C94000025
:10012000CF93DF93C2EFD1E02897E881F981019066
:10013000F081E02DCE01099581E0C23DD807A1F7FD
:10014000DF91CF910895CF93DF93EC010E94F508E2
:1001500060E271E0CE010E94D60881110EC067E214
:1001600071E0CE010E94D608811107C060E371E002
:10017000CE010E94D608882319F080E090E067C085
:100180006FE771E0CE010E94D608811107C069E3D4
:1001900071E0CE010E94D608882319F081E090E03A
:1001A00056C062E471E0CE010E94D6088111F6CFFC
:1001B00066E871E0CE010E94D608811107C06BE4A9
:1001C00071E0CE010E94D608882319F082E090E009
:1001D0003EC064E571E0CE010E94D6088111F6CFE1
:1001E0006DE871E0CE010E94D608811107C06DE56F
:1001F00071E0CE010E94D608882319F083E090E0D8
:1002000026C066E671E0CE010E94D6088111F6CFC5
:1002100064E971E0CE010E94D608811107C06FE643
:1002200071E0CE010E94D608882319F084E090E0A6
:100230000EC068E771E0CE010E94D6088111F6CFAA
:10024000BE018FEE92E00E9438078AE992E0DF91CA
:10025000CF91089526E040E855E260E070E08FEE2F
:1002600092E00E94D80580E092E00C94B0020F93D7
:100270001F93CF93DF93CDB7DEB72E970FB6F894C9
:10028000DEBF0FBECDBF109207011092060162EFD4
:1002900071E080E092E00E948904892B09F440C05B
:1002A0004091F6015091F7016091F8017091F901C8
:1002B00020E1CE0109960E94A908BE01675F7F4F29
:1002C000CE0101960E948808CE0101960E94A300EB
:1002D0008C01CE0101960E94030860910601709185
:1002E00007014AE050E08FEE92E00E94E3076DE9DB
:1002F00071E08FEE92E00E942B074AE050E0B801D7
:100300008FEE92E00E94EB0780E092E00E9466038D
:100310001093070100930601CE0109960E9403087D
:1003200068E071E0CE0101960E94CD0463E770E0C1
:10033000CE0101960E94E50460ED77E080E090E058
:100340000E948809CE0101960E94BA042E960FB62B
:10035000F894DEBF0FBECDBFDF91CF911F910F91FB
:10036000089563E170E080E092E00E94AB0264E1F6
:1003700071E082ED91E00E94CD0468E071E08AEDC9
:1003800091E00E94CD046EE071E082EE91E00E9467
:10039000CD046AE171E08AEE91E00E94CD0462ED45
:1003A00071E080ED91E00C94F80180ED91E00E9405
:1003B000DB010C94900023EA31E0FC0131832083BF
:1003C000089523EA31E0FC01318320830C9419095C
:1003D00081E092E00E94BA0489E092E00E94BA04AF
:1003E00081E192E00E94BA0489E192E00C94BA049F
:1003F000EF92FF920F931F93CF93DF93CDB7DEB7AA
:1004000028970FB6F894DEBF0FBECDBF8B0123EA4D
:1004100031E0FC01318320838BEAE82E81E0F82E65
:10042000FA82E982FB01428153815C834B83248100
:1004300035813E832D838681978198878F83509362
:100440001C0240931B0230931E0220931D029093C6
:10045000200280931F02CE0101960E94BA04FA8204
:10046000E982F801428553855C834B832485358579
:100470003E832D838685978598878F8350931402BA
:1004800040931302309316022093150290931802A2
:1004900080931702CE0101960E94BA04FA82E98283
:1004A000F801428953895C834B83248935893E83D3
:1004B0002D838689978998878F8350930C02409368
:1004C0000B0230930E0220930D0290931002809342
:1004D0000F02CE0101960E94BA04FA82E982F80165
:1004E000428D538D5C834B83248D358D3E832D83CC
:1004F000868D978D98878F835093040240930302D3
:10050000309306022093050290930802809307021D
:10051000CE0101960E94BA0428960FB6F894DEBF69
:100520000FBECDBFDF91CF911F910F91FF90EF9044
:10053000089589E192E00E94C70481E192E00E945F
:10054000C70489E092E00E94C70481E092E00C9425
:10055000C7040C94E80160932102109223020895CD
:10056000F89482E08093B0008093B10094E6909379
:10057000B3001092B20080937000789480932202AE
:100580001092EE028091210260E00C94850A1F9285
:100590000F920FB60F9211242F933F934F935F93B7
:1005A0006F937F938F939F93AF93BF93EF93FF933B
:1005B000809121020E94F40A2091240230912502A8
:1005C0002F5F3F4F30932502209324029091EE023B
:1005D000943618F095E09093220290912202933085
:1005E000B9F018F4923039F057C0943059F1953081
:1005F00009F44CC051C081114FC0209124023091A8
:1006000025022436310508F443C01092EE021CC0C6
:10061000813009F041C0E091EE0291E09E0F90938D
:10062000EE02F0E02091240230912502EE0FFF1F30
:10063000EF5DFD4F36832583109225021092240230
:1006400094E021C0811117C0E091EE0291E09E0F6D
:100650009093EE02F0E02091240230912502EE0FFB
:10066000FF1FEF5DFD4F3683258310922502109208
:10067000240293E008C020912402309125022536FF
:10068000310550F095E09093220206C0811104C01C
:10069000109225021092240290912302992329F0AE
:1006A000811102C02D9A01C02D98FF91EF91BF9149
:1006B000AF919F918F917F916F915F914F913F91FA
:1006C0002F910F900FBE0F901F90189582E080938E
:1006D00022021092EE020895CF93DF93FB01C285B0
:1006E000D3858A819B81885891098D35910500F5C4
:1006F0008091EE02843029F48C819D818097479708
:10070000D8F08091EE02843498F08C819D818254DF
:1007100091098E9768F4269623E030E080E090E01F
:10072000DC01488159814950510949305105D8F0BF
:1007300060E070E0CB013AC08E819F8109970997F4
:1007400000F7118610868FEF9FEFDC01848395837D
:10075000A683B78381E090E09183808361E070E0BD
:1007600080E090E023C04A815B81465151094131CC
:10077000510580F4880F991FAA1FBB1F81602E5F4F
:100780003F4F24962334310561F620E230E0318773
:100790002087DCCF4A815B814650510947305105A3
:1007A00038F6880F991FAA1FBB1FE9CFDF91CF91A1
:1007B00008958F929F92AF92BF92CF92DF92EF9265
:1007C000FF927B01BA0180E090E00E94220B4B0176
:1007D0005C01B70180E090E00E94220B6B017C017C
:1007E0002DEC3CEC4CE45FE30E94D40B9B01AC018C
:1007F000C501B4010E941E0B87FD17C02DEC3CEC17
:100800004CE45FE3C501B4010E94D40B9B01AC0131
:10081000C701B6010E941E0B992787FD9095882776
:10082000990F881F9927019602C080E090E0FF9001
:10083000EF90DF90CF90BF90AF909F908F900895F2
:100840008F929F92AF92BF92CF92DF92EF92FF92E0
:100850000F931F93CF93DF936C01EB01EC84FD8426
:1008600086E0E816F1040CF444C0EE0CFF1C06E030
:1008700010E0A5EC8A2EADE99A2EACE1AA2EA1E8F3
:10088000BA2E8A859B85FC01E00FF11F40815181C2
:10089000F8013497E80FF91F60817181C6010E9449
:1008A000D903FC01A501940163E971E080E091E0C6
:1008B0000E94370C4F01AA2497FCA094BA2C8626DC
:1008C0009726A826B9260E5F1F4F0E151F05C9F6DD
:1008D0008C829D82AE82BF8280E290E09987888779
:1008E0008FEF9FEF9983888361E070E080E090E074
:1008F00003C060E070E0CB01DF91CF911F910F91B9
:10090000FF90EF90DF90CF90BF90AF909F908F902F
:1009100008950F931F93CF93DF938C01EB0186E231
:1009200092E09B878A878091EE0290E09D878C877A
:10093000809122028530B9F4C8010E946C03672BB4
:10094000682B692B19F081E090E00FC0BE01C8014F
:100950000E942004672B682B692BA9F782E0809303
:1009600022021092EE0280E090E0DF91CF911F9181
:100970000F9108952BEA31E0FC0131832083089523
:100980002BEA31E0FC01318320830C9419092BEA16
:1009900031E0FC01318320830895FC01DB018BEA07
:1009A00091E0918380838D919C91119795838483AD
:1009B00012968D919C9113979783868314968D91AF
:1009C0009C911597938382830895CF93DF93EC01D5
:1009D0008A810E94FD0960E08C810E94BE0A61E06C
:1009E0008E81DF91CF910C94BE0AFC01818D228D06
:1009F00090E0805C9F4F821B91098F739927089527
:100A0000FC01918D828D981731F0828DE80FF11DD8
:100A1000858D90E008958FEF9FEF0895FC01918DF3
:100A2000828D981761F0828DDF01A80FB11D5D9650
:100A30008C91928D9F5F9F73928F90E008958FEFBE
:100A40009FEF089582E996E0892B49F080E090E0DD
:100A5000892B29F00E94920681110C9400000895C0
:100A6000FC01848DDF01A80FB11DA35ABF4F2C914B
:100A7000848D90E001968F739927848FA689B7891A
:100A80002C93A089B1898C9180648C93938D848DF3
:100A9000981306C00288F389E02D80818F7D8083C2
:100AA0000895CF93DF93EC01888D8823C9F0EA89FC
:100AB000FB89808185FD05C0A889B9898C9186FD57
:100AC0000FC00FB607FCF5CF808185FFF2CFA88954
:100AD000B9898C9185FFEDCFCE010E943005E7CF1B
:100AE000DF91CF910895CF92DF92FF920F931F93E2
:100AF000CF93DF931F92CDB7DEB76C0181E0D601B3
:100B000058968C9358975B969C915B975C968C91CA
:100B10005C97981307C05096ED91FC915197808196
:100B200085FD2EC0F601038D10E00F5F1F4F0F7380
:100B30001127F02EF601848DF81211C00FB607FCB4
:100B4000F9CFD6015096ED91FC915197808185FFA8
:100B5000F1CFC60169830E9430056981EBCF838D97
:100B6000E80FF11DE35AFF4F6083D6015B960C93AB
:100B70005B975296ED91FC915397808180620CC0F7
:100B8000D6015696ED91FC91579760835096ED9162
:100B9000FC91519780818064808381E090E00F9088
:100BA000DF91CF911F910F91FF90DF90CF9008952B
:100BB000BF92CF92DF92EF92FF92CF93DF93EC013F
:100BC0006A017B01B22EE889F98982E080834115B0
:100BD00081EE580761057105A1F060E079E08DE3D1
:100BE00090E0A70196010E94470C2150310941096C
:100BF00051095695479537952795211580E1380776
:100C000098F0E889F989108260E874E88EE190E054
:100C1000A70196010E94470C215031094109510951
:100C20005695479537952795EC85FD853083EE855C
:100C3000FF852083188EEC89FD89B082EA89FB89C3
:100C4000808180618083EA89FB89808188608083DC
:100C5000EA89FB89808180688083EA89FB898081B9
:100C60008F7D8083DF91CF91FF90EF90DF90CF90C9
:100C7000BF9008951F920F920FB60F9211242F93D9
:100C80008F939F93EF93FF93E091FF02F091000306
:100C90008081E0910503F091060382FD12C09081EE
:100CA000809108038F5F8F7320910903821751F0A1
:100CB000E0910803F0E0E151FD4F958F8093080328
:100CC00001C08081FF91EF919F918F912F910F90A3
:100CD0000FBE0F901F9018951F920F920FB60F9294
:100CE00011242F933F934F935F936F937F938F9331
:100CF0009F93AF93BF93EF93FF938FEE92E00E9489
:100D00003005FF91EF91BF91AF919F918F917F91AE
:100D10006F915F914F913F912F910F900FBE0F9068
:100D20001F9018958FEE92E00E94F50421E0892B28
:100D300009F420E0822F08951092F2021092F1023D
:100D400088EE93E0A0E0B0E08093F3029093F40289
:100D5000A093F502B093F60283EB91E09093F0023A
:100D60008093EF0285EC90E09093FC028093FB026D
:100D700084EC90E09093FE028093FD0280EC90E082
:100D8000909300038093FF0281EC90E09093020324
:100D90008093010382EC90E090930403809303031B
:100DA00086EC90E09093060380930503109208036D
:100DB0001092090310920A0310920B030895CF9228
:100DC000DF92EF92FF920F931F93CF93DF937C01FB
:100DD0006A01EB0100E010E00C151D0571F069914E
:100DE000D701ED91FC910190F081E02DC7010995AB
:100DF000892B19F00F5F1F4FEFCFC801DF91CF9103
:100E00001F910F91FF90EF90DF90CF9008956115A3
:100E1000710581F0DB010D900020E9F7AD01415033
:100E20005109461B570BDC01ED91FC910280F381C7
:100E3000E02D099480E090E00895DC01ED91FC91B3
:100E4000DB0114964D915C9115976D917C91028018
:100E5000F381E02D09940C940707DC01ED91FC91DE
:100E60000190F081E02D09946FEB71E00C9407077D
:100E70000F931F93CF93DF93EC010E941D078C010A
:100E8000CE010E943407800F911FDF91CF911F91F7
:100E90000F9108958F929F92AF92BF92DF92EF923F
:100EA000FF920F931F93CF93DF93CDB7DEB7A19738
:100EB0000FB6F894DEBF0FBECDBF7C01F42FD52E48
:100EC000CB0119A2223008F42AE08E010F5D1F4FDA
:100ED000822E912CA12CB12C6F2F7D2DA501940178
:100EE0000E94470CF22FD32ECA01015011096A301B
:100EF00014F4E0E301C0E7E3E60FD801EC93232B01
:100F0000242B252B49F7B801C7010E940707A1969A
:100F10000FB6F894DEBF0FBECDBFDF91CF911F910A
:100F20000F91FF90EF90DF90BF90AF909F908F90C8
:100F30000895CF92DF92EF92FF920F931F93CF937A
:100F4000DF93EC016A017B012115310579F4E88119
:100F5000F9810190F081E02D642FDF91CF911F91F5
:100F60000F91FF90EF90DF90CF9009942A303105D8
:100F7000E9F477FF1AC06DE20E942D078C01442727
:100F80005527BA014C195D096E097F092AE0CE0187
:100F90000E944A07800F911FDF91CF911F910F91FF
:100FA000FF90EF90DF90CF9008952AE0B701A6015F
:100FB000CE01DF91CF911F910F91FF90EF90DF90C5
:100FC000CF900C944A079A01AB01662757FD6095B4
:100FD000762F0C9499070F931F93CF93DF93EC0117
:100FE0009A01AB01662757FD6095762F0E949907FD
:100FF0008C01CE010E943407800F911FDF91CF91A9
:101000001F910F910895FC01808191810C94210D15
:10101000CF93DF93EC0188819981009711F00E94B2
:10102000210D198218821D821C821B821A82DF9177
:10103000CF9108950F931F93CF93DF93EC018B0112
:101040006F5F7F4F888199810E94B00D009731F0CA
:10105000998388831B830A8381E001C080E0DF914C
:10106000CF911F910F910895CF93DF93EC01888169
:101070009981892B29F08A819B818617970760F4D3
:10108000CE010E941A08882341F08C819D81892B12
:1010900019F4E881F981108281E0DF91CF91089500
:1010A000EF92FF920F931F93CF93DF93EC017B019D
:1010B0008A01BA010E943408811104C0CE010E9445
:1010C000080807C01D830C83B701888199810E949D
:1010D000940ECE01DF91CF911F910F91FF90EF9071
:1010E0000895CF93DF93EC01FB018617970761F01A
:1010F000608171816115710529F0448155810E94DB
:10110000500802C00E940808CE01DF91CF910895D7
:10111000FC011182108213821282158214820C94B7
:101120007108CF93DF93EC016115710561F0FB014C
:1011300001900020E9F7AF0141505109461B570BC0
:101140000E94500802C00E940808CE01DF91CF9192
:1011500008950F931F93CF93DF93CDB7DEB7A29778
:101160000FB6F894DEBF0FBECDBF8C01CB01BA0124
:10117000F80111821082138212821582148230E0EB
:10118000AE014F5F5F4F0E949B0EBE016F5F7F4FAE
:10119000C8010E949108A2960FB6F894DEBF0FBE58
:1011A000CDBFDF91CF911F910F910895FC01248154
:1011B0003581232B31F421E061157105A1F0FB018C
:1011C00008C0FC01808191816115710531F421E035
:1011D000FC018081882339F005C00E948B0E21E03C
:1011E000892B09F020E0822F0895CF93DF93FC0133
:1011F000C081D181209751F08881882339F09927C7
:1012000087FD90950E947A0E8993F6CFDF91CF915A
:10121000089508950E94C2090E9409090E942A01A6
:10122000C2E2D5E00E9437012097E1F30E94220537
:10123000F9CF0C94210D1F920F920FB60F9211242B
:101240002F933F938F939F93AF93BF9380918D0381
:1012500090918E03A0918F03B091900330918C03F5
:1012600023E0230F2D3720F40196A11DB11D05C0E9
:1012700026E8230F0296A11DB11D20938C038093B5
:101280008D0390938E03A0938F03B093900380916E
:10129000910390919203A0919303B09194030196CE
:1012A000A11DB11D8093910390939203A09393038A
:1012B000B0939403BF91AF919F918F913F912F91E4
:1012C0000F900FBE0F901F9018953FB7F894809124
:1012D000910390919203A0919303B091940326B54A
:1012E000A89B05C02F3F19F00196A11DB11D3FBF5E
:1012F0006627782F892F9A2F620F711D811D911DEE
:1013000042E0660F771F881F991F4A95D1F708950D
:101310008F929F92AF92BF92CF92DF92EF92FF9205
:101320006B017C010E9465094B015C01C114D10471
:10133000E104F104F1F00E941D0B0E946509681997
:1013400079098A099B09683E73408105910570F30C
:1013500021E0C21AD108E108F10888EE880E83E086
:10136000981EA11CB11CC114D104E104F10429F799
:10137000DDCFFF90EF90DF90CF90BF90AF909F9028
:101380008F900895789484B5826084BD84B581601F
:1013900084BD85B5826085BD85B5816085BDEEE67D
:1013A000F0E0808181608083E1E8F0E0108280815C
:1013B00082608083808181608083E0E8F0E08081CA
:1013C00081608083E1EBF0E0808184608083E0EBEA
:1013D000F0E0808181608083EAE7F0E080818460D2
:1013E000808380818260808380818160808380812E
:1013F000806880831092C10008951F93CF93DF937C
:10140000182FEB0161E00E94850A209711F460E03B
:1014100004C0CF3FD10539F461E0812FDF91CF9136
:101420001F910C94BE0AE12FF0E0E859FF4FE491C0
:10143000E330F9F048F4E130B9F0E230A1F584B5D9
:10144000806284BDC8BD34C0E730E9F0E83019F1EE
:10145000E43049F580918000806280938000D093D1
:101460008B00C0938A0024C084B5806884BDC7BD4A
:101470001FC080918000806880938000D093890095
:10148000C093880015C08091B00080688093B00040
:10149000C093B3000DC08091B00080628093B00013
:1014A000C093B40005C0C038D1050CF0B5CFAFCFA4
:1014B000DF91CF911F910895833081F028F481301E
:1014C00099F08230A1F008958730A9F08830B9F002
:1014D0008430D1F4809180008F7D03C080918000A2
:1014E0008F7780938000089584B58F7702C084B58C
:1014F0008F7D84BD08958091B0008F7703C0809167
:10150000B0008F7D8093B0000895CF93DF9390E07B
:10151000FC01E458FF4F2491FC01E057FF4F8491F8
:10152000882349F190E0880F991FFC01E854FF4F90
:10153000A591B49182559F4FFC01C591D4919FB75D
:10154000611108C0F8948C91209582238C93888136
:1015500082230AC0623051F4F8948C91322F309576
:1015600083238C938881822B888304C0F8948C9188
:10157000822B8C939FBFDF91CF9108950F931F9380
:10158000CF93DF931F92CDB7DEB7282F30E0F9015C
:10159000E859FF4F8491F901E458FF4F1491F90184
:1015A000E057FF4F04910023C9F0882321F069839D
:1015B0000E945C0A6981E02FF0E0EE0FFF1FE25508
:1015C000FF4FA591B4919FB7F8948C91611103C01E
:1015D0001095812301C0812B8C939FBF0F90DF91C9
:1015E000CF911F910F910895CF93DF93282F30E073
:1015F000F901E859FF4F8491F901E458FF4FD49164
:10160000F901E057FF4FC491CC2391F081110E9462
:101610005C0AEC2FF0E0EE0FFF1FEC55FF4FA59199
:10162000B4912C912D2381E090E021F480E002C060
:1016300080E090E0DF91CF910895089540D008F4C4
:1016400081E00895E89409C097FB3EF49095809559
:10165000709561957F4F8F4F9F4F9923A9F0F92F78
:1016600096E9BB279395F695879577956795B795F6
:10167000F111F8CFFAF4BB0F11F460FF1BC06F5FDC
:101680007F4F8F4F9F4F16C0882311F096E911C0EE
:10169000772321F09EE8872F762F05C0662371F00F
:1016A00096E8862F70E060E02AF09A95660F771F23
:1016B000881FDAF7880F9695879597F90895990FFF
:1016C0000008550FAA0BE0E8FEEF16161706E8070C
:1016D000F907C0F012161306E407F50798F0621B2D
:1016E000730B840B950B39F40A2661F0232B242B02
:1016F000252B21F408950A2609F4A140A6958FEF21
:10170000811D811D089597F99F6780E870E060E072
:1017100008959FEF80EC089500240A94161617068A
:1017200018060906089500240A94121613061406D2
:1017300005060895092E0394000C11F4882352F035
:10174000BB0F40F4BF2B11F460FF04C06F5F7F4FED
:101750008F4F9F4F089557FD9058440F551F59F0D4
:101760005F3F71F04795880F97FB991F61F09F3F8E
:1017700079F087950895121613061406551FF2CFB7
:101780004695F1DF08C0161617061806991FF1CF07
:1017900086957105610508940895E894BB2766272E
:1017A0007727CB0197F908950BD0C4CFB5DF28F088
:1017B000BADF18F0952309F0A6CFABCF1124EECFF6
:1017C000CADFA0F3959FD1F3950F50E0551F629F9C
:1017D000F001729FBB27F00DB11D639FAA27F00D8A
:1017E000B11DAA1F649F6627B00DA11D661F829FB1
:1017F0002227B00DA11D621F739FB00DA11D621F96
:10180000839FA00D611D221F749F3327A00D611DB2
:10181000231F849F600D211D822F762F6A2F112494
:101820009F5750408AF0E1F088234AF0EE0FFF1FE7
:10183000BB1F661F771F881F91505040A9F79E3F1E
:10184000510570F060CFAACF5F3FECF3983EDCF318
:10185000869577956795B795F795E7959F5FC1F75B
:10186000FE2B880F911D9695879597F90895DB01BA
:101870008F939F930E94690CBF91AF91A29F800D9F
:10188000911DA39F900DB29F900D11240895A1E288
:101890001A2EAA1BBB1BFD010DC0AA1FBB1FEE1FEA
:1018A000FF1FA217B307E407F50720F0A21BB30B35
:1018B000E40BF50B661F771F881F991F1A9469F7B1
:1018C00060957095809590959B01AC01BD01CF010D
:1018D00008950E947A0CA59F900DB49F900DA49F2F
:1018E000800D911D11240895EE0FFF1F0590F491B6
:1018F000E02D0994A29FB001B39FC001A39F700D7A
:10190000811D1124911DB29F700D811D1124911D07
:101910000895CF93DF938230910510F482E090E038
:10192000E0919703F091980320E030E0A0E0B0E070
:10193000309739F14081518148175907B8F048175D
:10194000590771F482819381109729F013969C9323
:101950008E9312972CC0909398038093970327C07F
:101960002115310531F04217530718F0A901DB01A9
:1019700001C0EF019A01BD01DF010280F381E02D7A
:10198000D7CF21153105F9F0281B390B243031054B
:1019900080F48A819B816115710521F0FB0193839D
:1019A000828304C09093980380939703FE0132963C
:1019B00044C0FE01E20FF31F81939193225031093D
:1019C000398328833AC02091950330919603232BC5
:1019D00041F420910201309103013093960320934A
:1019E000950320910001309101012115310541F449
:1019F0002DB73EB74091040150910501241B350BD2
:101A0000E0919503F0919603E217F307A0F42E1BE3
:101A10003F0B2817390778F0AC014E5F5F4F241752
:101A2000350748F04E0F5F1F509396034093950380
:101A30008193919302C0E0E0F0E0CF01DF91CF917C
:101A40000895CF93DF93009709F487C0FC01329784
:101A500013821282C0919703D0919803209781F44A
:101A600020813181280F391F809195039091960331
:101A70008217930779F5F0939603E09395036DC071
:101A8000DE0120E030E0AE17BF0750F412964D9112
:101A90005C9113979D014115510509F1DA01F3CFCE
:101AA000B383A28340815181840F951F8A179B07BE
:101AB00071F48D919C911197840F951F02969183DB
:101AC000808312968D919C91139793838283211525
:101AD000310529F4F0939803E09397033EC0D901B0
:101AE0001396FC93EE9312974D915D91A40FB51F41
:101AF000EA17FB0779F480819181840F951F029684
:101B0000D90111969C938E938281938113969C9315
:101B10008E931297E0E0F0E08A819B81009719F0A4
:101B2000FE01EC01F9CFCE01029628813981820FA6
:101B3000931F20919503309196032817390769F474
:101B4000309729F4109298031092970302C01382E1
:101B50001282D0939603C0939503DF91CF9108959D
:101B6000A0E0B0E0E6EBFDE00C94EB0EEC01CB0165
:101B7000209719F40E94890CB8C0FE01E60FF71FE8
:101B80009E0122503109E217F30708F4ACC0D901D5
:101B90000D911C91119706171707B8F00530110524
:101BA00008F49FC0A801445051094617570708F48C
:101BB00098C002501109061B170B019311936D93E6
:101BC0007C93CF010E94210D8CC05B01A01AB10A49
:101BD0004E01800E911EA0919703B0919803612C45
:101BE000712C60E070E0109709F449C0A815B905A0
:101BF000C9F5ED90FC901197670142E0C40ED11C2D
:101C0000CA14DB0478F147018A189B08640142E09A
:101C1000C40ED11C1296BC9012971396AC91B5E0ED
:101C2000CB16D10440F0B282A38391828082D90185
:101C30008D939C9309C00E5F1F4F0E0D1F1DF90160
:101C400011830083EB2DFA2F6115710531F0DB0153
:101C50001396FC93EE93129744C0F0939803E0938D
:101C600097033FC06D917C9111976616770608F433
:101C70003B01BD0112960D90BC91A02DB4CF609197
:101C800095037091960368157905E9F4681679064D
:101C9000D0F440910001509101014115510541F4EA
:101CA0004DB75EB76091040170910501461B570B5B
:101CB000E417F507C0F4F0939603E0939503F90158
:101CC000918380830EC00E94890C7C01009759F09B
:101CD000A801BE010E94820ECE010E94210DC70103
:101CE00004C0CE0102C080E090E0CDB7DEB7EEE0E8
:101CF0000C94070F9111089581568A5108F480526F
:101D000085580895FB01DC0102C001900D924150FD
:101D10005040D8F70895FB01DC018D9101908019A6
:101D20000110D9F3990B0895FB01DC0101900D928C
:101D30000020E1F708952532310520F4223010F01B
:101D40000C94A60EFA011082CA010895BB272A300E
:101D500051F4992342F4BDE2909580957095619578
:101D60007F4F8F4F9F4F0C94B60EBB27FA01A62FC3
:101D70006217710581059105330B30FB66F0AA27C8
:101D8000660F771F881F991FAA1FA21710F0A21BAA
:101D900063953850A9F7A05DAA3308F0A95DA19317
:101DA00036F7B111B1931082CA010C94D70EDC0141
:101DB000FC01672F71917723E1F7329704C07C9182
:101DC0006D9370836291AE17BF07C8F308952F9289
:101DD0003F924F925F926F927F928F929F92AF92BB
:101DE000BF92CF92DF92EF92FF920F931F93CF9308
:101DF000DF93CDB7DEB7CA1BDB0B0FB6F894DEBF9F
:101E00000FBECDBF09942A88398848885F846E84C4
:101E10007D848C849B84AA84B984C884DF80EE800E
:101E2000FD800C811B81AA81B981CE0FD11D0FB617
:101E3000F894DEBF0FBECDBFED01089510E0C8ECF1
:101E4000D0E004C0FE010E94760C2296CC3CD10763
:061E5000C9F7F894FFCF72
:101E560000009903800064000B00070006000800DC
:101E66000A0009000D000C00050002000400030032
:101E760046443238443700434244324343464400E2
:101E860037353843394438320038354530394436E9
:101E96003100353338303145453800364635393727
:101EA60034424400433236424630343400353745F6
:101EB60033343645310043344646423634360036EE
:101EC6004343384335454100464433304346004694
:101ED60044363839370046443838373700464439AF
:101EE600383637003642444437394536007C0000E0
:101EF600000000DB01E10100000000BA04C004009C
:101F06000000007305DF06F5040E05000551050DFA
:101F16000A006E616E00696E66006F7666002E00BE
:00000001FF
