:100000000C9436000C945E000C945E000C945E0020
:100010000C945E000C945E000C945E000C945E00E8
:100020000C945E000C945E000C945E000C945E00D8
:100030000C945E000C945E000C945E000C945E00C8
:100040000C94C4000C945E000C945E000C945E0052
:100050000C945E000C945E000C945E000C945E00A8
:100060000C945E000C945E0072008A0011241FBE86
:10007000CFEFD8E0DEBFCDBF11E0A0E0B1E0E6E019
:10008000F5E002C005900D92A632B107D9F721E044
:10009000A6E2B1E001C01D92A134B207E1F710E081
:1000A000CAE6D0E004C02297FE010E944B01C83688
:1000B000D107C9F70E94B3000C9476020C9400009B
:1000C0000895089586E291E00E948C0088E291E014
:1000D0000E948C008AE291E00E948C008CE291E008
:1000E0000C948C0068E171E08CE291E00E94990030
:1000F00062E171E08AE291E00E9499006CE071E0B7
:1001000088E291E00E94990066E071E086E291E069
:100110000C9499000C94620022E231E0FC013183DE
:100120002083089522E231E0FC01318320830C9486
:10013000C200FB0122E231E0DC012D933C9380817F
:1001400091819093310180933001828193819093CA
:100150002F0180932E0184819581909333018093A8
:100160003201089508950E940E010E94B2000E947B
:100170006000C0E0D0E00E9461002097E1F30E949F
:100180000000F9CF0C94E7011F920F920FB60F9267
:1001900011242F933F938F939F93AF93BF9380919D
:1001A000350190913601A0913701B091380130911D
:1001B000340123E0230F2D3720F40196A11DB11D3A
:1001C00005C026E8230F0296A11DB11D209334011E
:1001D0008093350190933601A0933701B093380195
:1001E0008091390190913A01A0913B01B0913C017D
:1001F0000196A11DB11D8093390190933A01A093FE
:100200003B01B0933C01BF91AF919F918F913F9182
:100210002F910F900FBE0F901F901895789484B572
:10022000826084BD84B5816084BD85B5826085BDF2
:1002300085B5816085BDEEE6F0E0808181608083D8
:10024000E1E8F0E0108280818260808380818160BB
:100250008083E0E8F0E0808181608083E1EBF0E082
:10026000808184608083E0EBF0E080818160808326
:10027000EAE7F0E08081846080838081826080830F
:100280008081816080838081806880831092C1003A
:100290000895EE0FFF1F0590F491E02D0994CF9380
:1002A000DF938230910510F482E090E0E0913F010D
:1002B000F091400120E030E0A0E0B0E0309739F16B
:1002C0004081518148175907B8F04817590771F410
:1002D00082819381109729F013969C938E931297A5
:1002E0002CC09093400180933F0127C02115310518
:1002F00031F04217530718F0A901DB0101C0EF01EB
:100300009A01BD01DF010280F381E02DD7CF2115D5
:100310003105F9F0281B390B2430310580F48A812E
:100320009B816115710521F0FB019383828304C0D9
:100330009093400180933F01FE01329644C0FE013C
:10034000E20FF31F8193919322503109398328835F
:100350003AC020913D0130913E01232B41F4209180
:1003600002013091030130933E0120933D01209121
:100370000001309101012115310541F42DB73EB73F
:100380004091040150910501241B350BE0913D0182
:10039000F0913E01E217F307A0F42E1B3F0B281744
:1003A000390778F0AC014E5F5F4F2417350748F0EE
:1003B0004E0F5F1F50933E0140933D0181939193F7
:1003C00002C0E0E0F0E0CF01DF91CF910895CF933C
:1003D000DF93009709F487C0FC01329713821282E1
:1003E000C0913F01D0914001209781F4208131815B
:1003F000280F391F80913D0190913E01821793078C
:1004000079F5F0933E01E0933D016DC0DE0120E0FF
:1004100030E0AE17BF0750F412964D915C911397E0
:100420009D014115510509F1DA01F3CFB383A28390
:1004300040815181840F951F8A179B0771F48D911C
:100440009C911197840F951F029691838083129639
:100450008D919C911397938382832115310529F403
:10046000F0934001E0933F013EC0D9011396FC9305
:10047000EE9312974D915D91A40FB51FEA17FB07FC
:1004800079F480819181840F951F0296D90111968C
:100490009C938E938281938113969C938E93129753
:1004A000E0E0F0E08A819B81009719F0FE01EC0109
:1004B000F9CFCE01029628813981820F931F2091B6
:1004C0003D0130913E012817390769F4309729F42E
:1004D0001092400110923F0102C013821282D09309
:1004E0003E01C0933D01DF91CF91089510E0CAE62F
:1004F000D0E004C0FE010E944B012296CC36D10709
:06050000C9F7F894FFCFDB
:100506000000410180000D000C000B0008000A00ED
:1005160009000500070006000200040003000000B1
:0605260000008C009200B1
:00000001FF
