:100000000C9461000C9489000C9489000C94890074
:100010000C9489000C9489000C9489000C9489003C
:100020000C9489000C9489000C9489000C9489002C
:100030000C9489000C9489000C9489000C9489001C
:100040000C94C0060C9489000C9430040C94620447
:100050000C9489000C9489000C9489000C948900FC
:100060000C9489000C948900000000080002010033
:100070000003040700000000000000000102040863
:100080001020408001020408102001020408102002
:10009000040404040404040402020202020203032E
:1000A0000303030300000000250028002B000000CC
:1000B0000000240027002A00A40052029204BC0081
:1000C000620211241FBECFEFD8E0DEBFCDBF11E02A
:1000D000A0E0B1E0EEE8F6E102C005900D92AE3589
:1000E000B107D9F722E0AEE5B1E001C01D92A83416
:1000F000B207E1F710E0CEEBD0E004C02297FE019A
:100100000E94BE08C83BD107C9F70E94AF060C94F5
:100110003A0B0C940000CF93DF93CEE7D1E0289701
:10012000E881F9810190F081E02DCE01099581E00F
:10013000CE35D807A1F7DF91CF91089560ED77E034
:1001400080E090E00C942D0768E171E08EE591E08D
:100150000E94770262E171E086E691E00E947702F8
:100160006CE071E08EE691E00E94770266E071E05B
:1001700086E791E00C9477020C948B00CF93DF9389
:10018000CDB7DEB728970FB6F894DEBF0FBECDBF50
:1001900026E040E855E260E070E08EE991E00E94E0
:1001A000CE036EE571E0CE0107960E944F018EE905
:1001B00091E00E9421056EE571E0CE0101960E945A
:1001C0009F02BE016F5F7F4F8EE991E00E94130591
:1001D000CE0101960E94370566E671E0CE010196D8
:1001E0000E949F02BE016F5F7F4F8EE991E00E94E7
:1001F0001305CE0101960E9437056EE671E0CE012F
:1002000001960E949F02BE016F5F7F4F8EE991E0D1
:100210000E941305CE0101960E94370566E771E042
:10022000CE0101960E949F02BE016F5F7F4F8EE953
:1002300091E00E941305CE0101960E94370564E605
:1002400070E0CE0107960E943A02CE0107960E9406
:10025000320128960FB6F894DEBF0FBECDBFDF91F6
:10026000CF9108952FE231E0FC013183208308957E
:100270002FE231E0FC01318320830C94BE068EE72F
:1002800091E00E94640286E891E00E9464028EE898
:1002900091E00E94640286E991E00C946402EF927E
:1002A000FF920F931F93CF93DF93CDB7DEB72897BD
:1002B0000FB6F894DEBF0FBECDBF8B012FE231E049
:1002C000FC013183208389E3E82E81E0F82EFA8255
:1002D000E982FB01428153815C834B832481358118
:1002E0003E832D838681978198878F8350939901D0
:1002F0004093980130939B0120939A0190939D0124
:1003000080939C01CE0101960E946402FA82E982E8
:10031000F801428553855C834B83248535853E8374
:100320002D838685978598878F835093910140937D
:1003300090013093930120939201909395018093C3
:100340009401CE0101960E946402FA82E982F801CA
:10035000428953895C834B83248935893E832D836D
:100360008689978998878F83509389014093880164
:1003700030938B0120938A0190938D0180938C019F
:10038000CE0101960E946402FA82E982F801428D50
:10039000538D5C834B83248D358D3E832D83868DD9
:1003A000978D98878F83509381014093800130937C
:1003B0008301209382019093850180938401CE0173
:1003C00001960E9464026EE171E08EE991E00E9464
:1003D000250566E971E0CE0101960E949F02BE01EB
:1003E0006F5F7F4F8EE991E00E941305CE01019669
:1003F0000E9437056EE871E0CE0101960E949F02CF
:10040000BE016F5F7F4F8EE991E00E941305CE0120
:1004100001960E94370566E871E0CE0101960E94C0
:100420009F02BE016F5F7F4F8EE991E00E9413052E
:10043000CE0101960E9437056EE771E0CE0101966C
:100440000E949F02BE016F5F7F4F8EE991E00E9484
:100450001305CE0101960E94370528960FB6F89431
:10046000DEBF0FBECDBFDF91CF911F910F91FF90E7
:10047000EF900895CF93DF93EB0186E991E00E941E
:100480008F02BE018EE891E00E948F02BE0186E8D5
:1004900091E00E948F02BE018EE791E0DF91CF9143
:1004A0000C948F0286E991E00E9471028EE891E03F
:1004B0000E94710286E891E00E9471028EE791E04D
:1004C0000C9471020C943F0129E331E0FC0131836B
:1004D0002083089529E331E0FC01318320830C94CB
:1004E000BE0629E331E0FC01318320830895FC013D
:1004F000DB0189E391E0918380838D919C91119739
:100500009583848312968D919C911397978386830C
:1005100014968D919C911597938382830895CF9320
:10052000DF93EC018A810E94A20760E08C810E9427
:10053000630861E08E81DF91CF910C946308EF92A4
:10054000FF920F931F93CF93DF9300D000D000D082
:10055000CDB7DEB78C017B016FE471E00E94A50589
:10056000F701648175814AE0CE0101960E9415066B
:10057000BE016F5F7F4FC8010E94F105CE01019659
:100580000E94370563E371E0C8010E946D06F70120
:1005900066817781C8010E947D0663E371E0C8012E
:1005A0000E946D06F70162817381C8010E947D0679
:1005B0006EE471E0C8010E946D06C80126960FB670
:1005C000F894DEBF0FBECDBFDF91CF911F910F9189
:1005D000FF90EF900895FC01818D228D90E0805C6A
:1005E0009F4F821B91098F7399270895FC01918D6C
:1005F000828D981731F0828DE80FF11D858D90E086
:1006000008958FEF9FEF0895FC01918D828D9817CB
:1006100061F0828DDF01A80FB11D5D968C91928DE6
:100620009F5F9F73928F90E008958FEF9FEF0895E3
:1006300088E894E0892B49F080E090E0892B29F04C
:100640000E94880481110C9400000895FC01848D9F
:10065000DF01A80FB11DA35ABF4F2C91848D90E0EC
:1006600001968F739927848FA689B7892C93A089C7
:10067000B1898C9180648C93938D848D981306C07E
:100680000288F389E02D80818F7D80830895CF9348
:10069000DF93EC01888D8823C9F0EA89FB8980818A
:1006A00085FD05C0A889B9898C9186FD0FC00FB65C
:1006B00007FCF5CF808185FFF2CFA889B9898C919D
:1006C00085FFEDCFCE010E942603E7CFDF91CF91CA
:1006D0000895CF92DF92FF920F931F93CF93DF93F2
:1006E0001F92CDB7DEB76C0181E0D60158968C938E
:1006F00058975B969C915B975C968C915C9798134E
:1007000007C05096ED91FC915197808185FD2EC0D8
:10071000F601038D10E00F5F1F4F0F731127F02EAE
:10072000F601848DF81211C00FB607FCF9CFD6017F
:100730005096ED91FC915197808185FFF1CFC601D4
:1007400069830E9426036981EBCF838DE80FF11D39
:10075000E35AFF4F6083D6015B960C935B975296EA
:10076000ED91FC915397808180620CC0D601569622
:10077000ED91FC91579760835096ED91FC915197C4
:1007800080818064808381E090E00F90DF91CF9141
:100790001F910F91FF90DF90CF900895BF92CF925D
:1007A000DF92EF92FF92CF93DF93EC016A017B011E
:1007B000B22EE889F98982E08083411581EE5807DD
:1007C00061057105A1F060E079E08DE390E0A7019B
:1007D00096010E949A082150310941095109569504
:1007E000479537952795211580E1380798F0E889D6
:1007F000F989108260E874E88EE190E0A701960123
:100800000E949A082150310941095109569547958E
:1008100037952795EC85FD853083EE85FF85208310
:10082000188EEC89FD89B082EA89FB89808180611C
:100830008083EA89FB89808188608083EA89FB89DB
:10084000808180688083EA89FB8980818F7D8083B5
:10085000DF91CF91FF90EF90DF90CF90BF90089500
:100860001F920F920FB60F9211242F938F939F9385
:10087000EF93FF93E091AE01F091AF018081E091A1
:10088000B401F091B50182FD12C090818091B70151
:100890008F5F8F732091B801821751F0E091B701FB
:1008A000F0E0E256FE4F958F8093B70101C0808142
:1008B000FF91EF919F918F912F910F900FBE0F900D
:1008C0001F9018951F920F920FB60F9211242F931D
:1008D0003F934F935F936F937F938F939F93AF93C8
:1008E000BF93EF93FF938EE991E00E942603FF915F
:1008F000EF91BF91AF919F918F917F916F915F9198
:100900004F913F912F910F900FBE0F901F90189510
:100910008EE991E00E94EB0221E0892B09F420E0AE
:10092000822F08951092A1011092A00188EE93E009
:10093000A0E0B0E08093A2019093A301A093A40152
:10094000B093A50181E491E090939F0180939E0173
:1009500085EC90E09093AB018093AA0184EC90E049
:100960009093AD018093AC0180EC90E09093AF0147
:100970008093AE0181EC90E09093B1018093B0013F
:1009800082EC90E09093B3018093B20186EC90E00A
:100990009093B5018093B4011092B7011092B80101
:1009A0001092B9011092BA010895CF92DF92EF929E
:1009B000FF920F931F93CF93DF937C016A01EB01AA
:1009C00000E010E00C151D0571F06991D701ED9163
:1009D000FC910190F081E02DC7010995892B19F058
:1009E0000F5F1F4FEFCFC801DF91CF911F910F9184
:1009F000FF90EF90DF90CF9008956115710581F021
:100A0000DB010D900020E9F7AD0141505109461B73
:100A1000570BDC01ED91FC910280F381E02D0994EC
:100A200080E090E00895DC01ED91FC91DB011496EB
:100A30004D915C9115976D917C910280F381E02D31
:100A400009946DE471E00C94FD040F931F93CF9310
:100A5000DF93EC010E94FD048C01CE010E94210570
:100A6000800F911FDF91CF911F910F910895FC018D
:100A7000808191810C945A09CF93DF93EC01888196
:100A80009981009711F00E945A09198218821D82DB
:100A90001C821B821A82DF91CF9108950F931F93BE
:100AA000CF93DF93EC018B016F5F7F4F888199813A
:100AB0000E94E909009731F0998388831B830A8398
:100AC00081E001C080E0DF91CF911F910F910895E7
:100AD000CF93DF93EC0188819981892B29F08A815A
:100AE0009B818617970760F4CE010E944E058823EC
:100AF00041F08C819D81892B19F4E881F981108264
:100B000081E0DF91CF910895EF92FF920F931F93B1
:100B1000CF93DF93EC017B018A01BA010E94680543
:100B2000811104C0CE010E943C0507C01D830C83C7
:100B3000B701888199810E94BC0ACE01DF91CF91D3
:100B40001F910F91FF90EF900895FC011182108288
:100B500013821282158214826115710559F0FB010E
:100B600001900020E9F7AF0141505109461B570B96
:100B70000C94840508950F931F93CF93DF938C01FA
:100B8000EB01FC0180819181009799F042815381B2
:100B90002C813D814217530750F0688179810E9472
:100BA000BC0A8C819D81F8019583848313C00E94C7
:100BB0005A0988819981F801918380838A819B8178
:100BC000938382838C819D8195838483198218828B
:100BD0001B821A821D821C82DF91CF911F910F917F
:100BE0000895CF93DF93EC018617970711F00E94C9
:100BF000BB05CE01DF91CF910895CF93DF93EC0138
:100C00006115710561F0FB0101900020E9F7AF016A
:100C100041505109461B570B0E94840502C00E9497
:100C20003C05CE01DF91CF9108950F931F93CF9391
:100C3000DF93CDB7DEB762970FB6F894DEBF0FBE75
:100C4000CDBF8C01CB01F801118210821382128278
:100C50001582148250E0BE016F5F7F4F0E94C30A6D
:100C6000BE016F5F7F4FC8010E94FD0562960FB6FF
:100C7000F894DEBF0FBECDBFDF91CF911F910F91D2
:100C80000895EF92FF920F931F93CF93DF93EC01A0
:100C90007B010C811D816115710511F480E016C086
:100CA0004115510591F0040F151FB8010E94680508
:100CB0008823A1F3288139818C819D81B701820F1E
:100CC000931F0E94BC0A1D830C8381E0DF91CF91AA
:100CD0001F910F91FF90EF9008956115710559F0E4
:100CE000FB0101900020E9F7AF0141505109461B7B
:100CF000570B0C94410680E00895EF92FF920F93FA
:100D00001F93CF93DF93CDB7DEB728970FB6F89434
:100D1000DEBF0FBECDBF7C01CB014AE08E010F5F6D
:100D20001F4FB8010E94CE0AF80101900020E9F798
:100D3000AF0141505109401B510BB801C7010E943E
:100D4000410628960FB6F894DEBF0FBECDBFDF91E7
:100D5000CF911F910F91FF90EF90089508950E94F9
:100D600067070E94AE060E94BE00C8E1D3E00E9461
:100D70009E002097E1F30E941803F9CF0C945A09C2
:100D80001F920F920FB60F9211242F933F938F93C0
:100D90009F93AF93BF9380913C0290913D02A091AD
:100DA0003E02B0913F0230913B0223E0230F2D37EA
:100DB00020F40196A11DB11D05C026E8230F02965F
:100DC000A11DB11D20933B0280933C0290933D02F4
:100DD000A0933E02B0933F02809140029091410265
:100DE000A0914202B09143020196A11DB11D8093D2
:100DF000400290934102A0934202B0934302BF91FC
:100E0000AF919F918F913F912F910F900FBE0F90B7
:100E10001F9018953FB7F89480914002909141023D
:100E2000A0914202B091430226B5A89B05C02F3F76
:100E300019F00196A11DB11D3FBF6627782F892F9C
:100E40009A2F620F711D811D911D42E0660F771F61
:100E5000881F991F4A95D1F708958F929F92AF925C
:100E6000BF92CF92DF92EF92FF926B017C010E94C2
:100E70000A074B015C01C114D104E104F104F1F053
:100E80000E9499080E940A07681979098A099B0932
:100E9000683E73408105910570F321E0C21AD108C4
:100EA000E108F10888EE880E83E0981EA11CB11CB1
:100EB000C114D104E104F10429F7DDCFFF90EF90D4
:100EC000DF90CF90BF90AF909F908F9008957894CF
:100ED00084B5826084BD84B5816084BD85B582603F
:100EE00085BD85B5816085BDEEE6F0E080818160DD
:100EF0008083E1E8F0E010828081826080838081DD
:100F000081608083E0E8F0E0808181608083E1EBB4
:100F1000F0E0808184608083E0EBF0E0808181609C
:100F20008083EAE7F0E08081846080838081826052
:100F3000808380818160808380818068808310923B
:100F4000C10008951F93CF93DF93182FEB0161E049
:100F50000E942A08209711F460E004C0CF3FD10519
:100F600039F461E0812FDF91CF911F910C946308D8
:100F7000E12FF0E0E859FF4FE491E330F9F048F455
:100F8000E130B9F0E230A1F584B5806284BDC8BD1E
:100F900034C0E730E9F0E83019F1E43049F58091E8
:100FA0008000806280938000D0938B00C0938A0081
:100FB00024C084B5806884BDC7BD1FC080918000F7
:100FC000806880938000D0938900C093880015C00A
:100FD0008091B00080688093B000C093B3000DC0D2
:100FE0008091B00080628093B000C093B40005C0CF
:100FF000C038D1050CF0B5CFAFCFDF91CF911F91A5
:101000000895833081F028F4813099F08230A1F086
:1010100008958730A9F08830B9F08430D1F48091F8
:1010200080008F7D03C0809180008F778093800047
:10103000089584B58F7702C084B58F7D84BD0895EF
:101040008091B0008F7703C08091B0008F7D809336
:10105000B0000895CF93DF9390E0FC01E458FF4F78
:101060002491FC01E057FF4F8491882349F190E0DF
:10107000880F991FFC01E255FF4FA591B4918C5543
:101080009F4FFC01C591D4919FB7611108C0F8949E
:101090008C91209582238C93888182230AC06230B0
:1010A00051F4F8948C91322F309583238C9388815E
:1010B000822B888304C0F8948C91822B8C939FBFE1
:1010C000DF91CF9108950F931F93CF93DF931F92DA
:1010D000CDB7DEB7282F30E0F901E859FF4F8491F2
:1010E000F901E458FF4F1491F901E057FF4F0491C3
:1010F0000023C9F0882321F069830E9401086981D7
:10110000E02FF0E0EE0FFF1FEC55FF4FA591B491DB
:101110009FB7F8948C91611103C01095812301C091
:10112000812B8C939FBF0F90DF91CF911F910F91D7
:1011300008950895A1E21A2EAA1BBB1BFD010DC044
:10114000AA1FBB1FEE1FFF1FA217B307E407F50777
:1011500020F0A21BB30BE40BF50B661F771F881F53
:10116000991F1A9469F760957095809590959B01E9
:10117000AC01BD01CF010895EE0FFF1F0590F49162
:10118000E02D0994CF93DF938230910510F482E033
:1011900090E0E0914602F091470220E030E0A0E0CC
:1011A000B0E0309739F14081518148175907B8F0C4
:1011B0004817590771F482819381109729F013968B
:1011C0009C938E9312972CC0909347028093460273
:1011D00027C02115310531F04217530718F0A90136
:1011E000DB0101C0EF019A01BD01DF010280F38143
:1011F000E02DD7CF21153105F9F0281B390B24300C
:10120000310580F48A819B816115710521F0FB0114
:101210009383828304C09093470280934602FE0129
:10122000329644C0FE01E20FF31F81939193225046
:101230003109398328833AC0209144023091450214
:10124000232B41F420910201309103013093450298
:1012500020934402209100013091010121153105B4
:1012600041F42DB73EB74091040150910501241B74
:10127000350BE0914402F0914502E217F307A0F428
:101280002E1B3F0B2817390778F0AC014E5F5F4FDC
:101290002417350748F04E0F5F1F509345024093C7
:1012A00044028193919302C0E0E0F0E0CF01DF912E
:1012B000CF910895CF93DF93009709F487C0FC0185
:1012C000329713821282C0914602D0914702209732
:1012D00081F420813181280F391F8091440290913F
:1012E00045028217930779F5F0934502E093440293
:1012F0006DC0DE0120E030E0AE17BF0750F412965B
:101300004D915C9113979D014115510509F1DA0149
:10131000F3CFB383A28340815181840F951F8A1735
:101320009B0771F48D919C911197840F951F0296E4
:101330009183808312968D919C91139793838283DE
:101340002115310529F4F0934702E09346023EC08F
:10135000D9011396FC93EE9312974D915D91A40FD2
:10136000B51FEA17FB0779F480819181840F951FDF
:101370000296D90111969C938E9382819381139644
:101380009C938E931297E0E0F0E08A819B81009716
:1013900019F0FE01EC01F9CFCE01029628813981C6
:1013A000820F931F2091440230914502281739077C
:1013B00069F4309729F4109247021092460202C055
:1013C00013821282D0934502C0934402DF91CF91E1
:1013D0000895A0E0B0E0EFEEF9E00C94070BEC010B
:1013E000CB01209719F40E94C208B8C0FE01E60F95
:1013F000F71F9E0122503109E217F30708F4ACC031
:10140000D9010D911C91119706171707B8F00530F7
:10141000110508F49FC0A801445051094617570709
:1014200008F498C002501109061B170B0193119381
:101430006D937C93CF010E945A098CC05B01A01A66
:10144000B10A4E01800E911EA0914602B091470252
:10145000612C712C60E070E0109709F449C0A81568
:10146000B905C9F5ED90FC901197670142E0C40EF3
:10147000D11CCA14DB0478F147018A189B08640167
:1014800042E0C40ED11C1296BC9012971396AC91F8
:10149000B5E0CB16D10440F0B282A3839182808262
:1014A000D9018D939C9309C00E5F1F4F0E0D1F1D18
:1014B000F90111830083EB2DFA2F6115710531F0CD
:1014C000DB011396FC93EE93129744C0F09347020E
:1014D000E09346023FC06D917C91119766167706A6
:1014E00008F43B01BD0112960D90BC91A02DB4CF24
:1014F000609144027091450268157905E9F4681617
:101500007906D0F440910001509101014115510537
:1015100041F44DB75EB76091040170910501461B1F
:10152000570BE417F507C0F4F0934502E09344022B
:10153000F901918380830EC00E94C2087C0100974C
:1015400059F0A801BE010E94B30ACE010E945A09B7
:10155000C70104C0CE0102C080E090E0CDB7DEB785
:10156000EEE00C94230BFB01DC0102C001900D9214
:1015700041505040D8F70895FB01DC0101900D92D5
:101580000020E1F708954532510520F4423010F073
:101590000C94CE0AFB011082CB010895BB274A3080
:1015A00031F4992322F4BDE2909581959F4F0C94DC
:1015B000DA0ABB27FB015527AA27880F991FAA1F04
:1015C000A41710F0A41B83955051B9F7A05DAA335E
:1015D00008F0A95DA193009779F7B111B193119229
:1015E000CB010C94F30ADC01FC01672F7191772386
:1015F000E1F7329704C07C916D9370836291AE17CE
:10160000BF07C8F308952F923F924F925F926F9257
:101610007F928F929F92AF92BF92CF92DF92EF9282
:10162000FF920F931F93CF93DF93CDB7DEB7CA1B03
:10163000DB0B0FB6F894DEBF0FBECDBF09942A882E
:10164000398848885F846E847D848C849B84AA84D6
:10165000B984C884DF80EE80FD800C811B81AA8163
:10166000B981CE0FD11D0FB6F894DEBF0FBECDBF2E
:10167000ED01089510E0CEEBD0E004C0FE010E9421
:0E168000BE082296C23CD107C9F7F894FFCFEE
:10168E0000004802800002000400030008000A0067
:10169E0009000500070006000D000C000B0031319B
:1016AE003131313131313131313100000000003210
:1016BE0001380120000000000064026A02000000F0
:1016CE00006903D504EB020403F60247030D0A007A
:0E16DE006E616E00696E66006F7666002E000B
:00000001FF
