:100000000C945C000C9479000C9479000C947900A9
:100010000C9479000C9479000C9479000C9479007C
:100020000C9479000C9479000C9479000C9479006C
:100030000C9479000C9479000C9479000C9479005C
:100040000C9403010C9479000C9479000C947900C1
:100050000C9479000C9479000C9479000C9479003C
:100060000C9479000C947900000000080002010053
:100070000003040700000000000000000102040863
:100080001020408001020408102001020408102002
:10009000040404040404040402020202020203032E
:1000A0000303030300000000250028002B000000CC
:1000B0000000240027002A0011241FBECFEFD8E043
:1000C000DEBFCDBF11E0A0E0B1E0E0E5F7E002C0A7
:1000D00005900D92A632B107D9F721E0A6E2B1E072
:1000E00001C01D92A933B207E1F70E94F2000C94FF
:1000F000A6030C9400000895CF93DF93CDB7DEB72D
:1001000028970FB6F894DEBF0FBECDBF68E171E04F
:10011000CE0107960E94CA0062E171E0CE01059609
:100120000E94CA006CE071E0CE0103960E94CA00F2
:1001300066E071E0CE0101960E94CA0062E370E0C1
:10014000CE0107960E94E300CE0101960E94BD00F9
:10015000CE0103960E94BD00CE0105960E94BD000F
:10016000CE0107960E94BD0028960FB6F894DEBF18
:100170000FBECDBFDF91CF91089522E231E0FC01A7
:1001800031832083089522E231E0FC013183208312
:100190000C940101FB0122E231E0DC012D933C9340
:1001A000808191819093290180932801828193819C
:1001B00090932701809326018481958190932B0150
:1001C00080932A01089580912A010E94880160E0AD
:1001D000809128010E94490261E0809126010C94DF
:1001E000490208950E944D010E94F1000E947C0086
:1001F000C0E0D0E00E947B002097E1F30E94000065
:10020000F9CF0C9417031F920F920FB60F9211247F
:100210002F933F938F939F93AF93BF9380912D0123
:1002200090912E01A0912F01B091300130912C01BD
:1002300023E0230F2D3720F40196A11DB11D05C029
:1002400026E8230F0296A11DB11D20932C01809357
:100250002D0190932E01A0932F01B0933001809136
:10026000310190913201A0913301B0913401019696
:10027000A11DB11D8093310190933201A0933301F0
:10028000B0933401BF91AF919F918F913F912F9186
:100290000F900FBE0F901F901895789484B58260D0
:1002A00084BD84B5816084BD85B5826085BD85B51A
:1002B000816085BDEEE6F0E0808181608083E1E8C9
:1002C000F0E0108280818260808380818160808301
:1002D000E0E8F0E0808181608083E1EBF0E0808104
:1002E00084608083E0EBF0E0808181608083EAE7D6
:1002F000F0E080818460808380818260808380815F
:10030000816080838081806880831092C10008951D
:100310001F93CF93DF93182FEB0161E00E9410022F
:10032000209711F460E004C0CF3FD10539F461E0BB
:10033000812FDF91CF911F910C944902E12FF0E0C2
:10034000E859FF4FE491E330F9F048F4E130B9F0B7
:10035000E230A1F584B5806284BDC8BD34C0E73009
:10036000E9F0E83019F1E43049F5809180008062CD
:1003700080938000D0938B00C0938A0024C084B502
:10038000806884BDC7BD1FC0809180008068809355
:100390008000D0938900C093880015C08091B00080
:1003A00080688093B000C093B3000DC08091B0000E
:1003B00080628093B000C093B40005C0C038D105FE
:1003C0000CF0B5CFAFCFDF91CF911F91089583305F
:1003D00081F028F4813099F08230A1F008958730BF
:1003E000A9F08830B9F08430D1F4809180008F7DFD
:1003F00003C0809180008F7780938000089584B53A
:100400008F7702C084B58F7D84BD08958091B00040
:100410008F7703C08091B0008F7D8093B0000895E6
:10042000CF93DF9390E0FC01E458FF4F2491FC014F
:10043000E057FF4F8491882349F190E0880F991F7E
:10044000FC01E255FF4FA591B4918C559F4FFC01E3
:10045000C591D4919FB7611108C0F8948C912095F3
:1004600082238C93888182230AC0623051F4F894ED
:100470008C91322F309583238C938881822B8883B3
:1004800004C0F8948C91822B8C939FBFDF91CF9105
:1004900008950F931F93CF93DF931F92CDB7DEB7CD
:1004A000282F30E0F901E859FF4F8491F901E45811
:1004B000FF4F1491F901E057FF4F04910023C9F059
:1004C000882321F069830E94E7016981E02FF0E031
:1004D000EE0FFF1FEC55FF4FA591B4919FB7F89415
:1004E0008C91611103C01095812301C0812B8C93E5
:1004F0009FBF0F90DF91CF911F910F910895CF93E0
:10050000DF938230910510F482E090E0E0913701B2
:10051000F091380120E030E0A0E0B0E0309739F110
:100520004081518148175907B8F04817590771F4AD
:1005300082819381109729F013969C938E93129742
:100540002CC0909338018093370127C021153105C5
:1005500031F04217530718F0A901DB0101C0EF0188
:100560009A01BD01DF010280F381E02DD7CF211573
:100570003105F9F0281B390B2430310580F48A81CC
:100580009B816115710521F0FB019383828304C077
:100590009093380180933701FE01329644C0FE01EA
:1005A000E20FF31F819391932250310939832883FD
:1005B0003AC02091350130913601232B41F420912E
:1005C00002013091030130933601209335012091CF
:1005D0000001309101012115310541F42DB73EB7DD
:1005E0004091040150910501241B350BE091350128
:1005F000F0913601E217F307A0F42E1B3F0B2817EA
:10060000390778F0AC014E5F5F4F2417350748F08B
:100610004E0F5F1F509336014093350181939193A4
:1006200002C0E0E0F0E0CF01DF91CF910895CF93D9
:10063000DF93009709F487C0FC013297138212827E
:10064000C0913701D0913801209781F42081318108
:10065000280F391F80913501909136018217930739
:1006600079F5F0933601E09335016DC0DE0120E0AD
:1006700030E0AE17BF0750F412964D915C9113977E
:100680009D014115510509F1DA01F3CFB383A2832E
:1006900040815181840F951F8A179B0771F48D91BA
:1006A0009C911197840F951F0296918380831296D7
:1006B0008D919C911397938382832115310529F4A1
:1006C000F0933801E09337013EC0D9011396FC93B3
:1006D000EE9312974D915D91A40FB51FEA17FB079A
:1006E00079F480819181840F951F0296D90111962A
:1006F0009C938E938281938113969C938E931297F1
:10070000E0E0F0E08A819B81009719F0FE01EC01A6
:10071000F9CFCE01029628813981820F931F209153
:100720003501309136012817390769F4309729F4DB
:10073000109238011092370102C013821282D093B6
:100740003601C0933501DF91CF910895F894FFCF22
:100750000000390180000D000C000B0008000A00A9
:100760000900050007000600020004000300000065
:060770000000BD00C30003
:00000001FF
